:020000040800F2
:100000003004002001010008DD110008DF110008A4
:10001000E1110008E3110008E511000800000000EC
:10002000000000000000000000000000E7110008D0
:10003000E911000800000000EB110008ED110008B4
:100040001B0100081B0100081B0100081B01000820
:100050001B0100081B0100081B0100081B01000810
:100060001B0100081B0100081B0100081B01000800
:100070001B0100081B0100081B0100081B010008F0
:100080001B0100081B0100081B0100081B010008E0
:100090001B0100081B0100081B0100081B010008D0
:1000A0001B0100081B0100081B0100081B010008C0
:1000B0001B0100081B0100081B0100081B010008B0
:1000C0001B0100081B0100081B0100081B010008A0
:1000D0001B0100081B0100081B0100081B01000890
:1000E0001B0100081B0100081B010008DFF80CD0F1
:1000F00002F04CF900480047C90E00083004002007
:100100000648804706480047FEE7FEE7FEE7FEE7B1
:10011000FEE7FEE7FEE7FEE7FEE7FEE72501000853
:10012000ED0000084D4882B0016841F00101016016
:1001300041684B4A11404160016821F4102121F0CF
:1001400080710160016821F480210160416821F41F
:10015000FE0141604FF41F01816000220192009274
:10016000016841F480310160016801F400310091BF
:100170000199491C0191009919B90199B1F5A06F34
:10018000F2D1016811F4003F08BF009233D0012181
:10019000009134490A6842F010020A600A6822F0AD
:1001A00003020A600A6842F002020A604168416084
:1001B00041684160416841F480614160416821F4D7
:1001C0007C114160416841F4E8114160016841F0EF
:1001D00080710160016811F0007FFBD0416821F05F
:1001E00003014160416841F002014160416801F052
:1001F0000C010829FAD11C494FF00060086002B0D8
:10020000704716494868194A10F00C03184818BF7F
:10021000042B01D0082B01D0026015E04A684B681E
:1002200002F470124FF0020C13F4803F0CEB924278
:1002300003D04B6813F4003F03D00E4B5A430260C7
:1002400002E00A4B5A43026049680B4AC1F30311AA
:10025000515C026822FA01F101607047001002400F
:100260000000FFF80020024008ED00E000127A00D4
:100270000000002000093D00040000202D4940F04E
:10028000FD7040F080600860704710B4C27801785B
:100290004FF00F0C012322B3264A126801F1E0212E
:1002A00002F4E062C2F5E062120AC2F104042CFA20
:1002B00002F290F801C00CFA04FC8478224042EA71
:1002C0000C02120181F80024007800F01F0103FAEB
:1002D00001F14009800000F1E020C0F8001110BCDD
:1002E000704701F01F0003FA00F04909890001F18D
:1002F000E021C1F8800110BC704721F07F0121F09E
:10030000604108430C49086070470C4A0029116895
:1003100014BF084321EA0000106070474FF0E0214D
:10032000042808690CBF40F0040020F004000861B4
:10033000704700000CED00E008ED00E010ED00E07B
:1003400010B5A0F18041B1F584311DD0B1F58061C7
:1003500024D0B1F580612BD0B1F5806132D0B1F5F8
:10036000806139D0B1F5806140D0B1F5806118BFAE
:1003700010BD0121080200F066FABDE8104000211E
:100380004FF4807000F05FBA0121042000F05BFAA6
:100390000021BDE81040042000F055BA01210820DA
:1003A00000F051FA0021BDE81040082000F04BBADF
:1003B0000121102000F047FA0021BDE81040102074
:1003C00000F041BA0121202000F03DFA0021BDE8F3
:1003D0001040202000F037BA0121402000F033FA0D
:1003E0000021BDE81040402000F02DBA01218020FE
:1003F00000F029FA0021BDE81040802000F023BA67
:1004000010B50121084600F01EFA0021BDE8104099
:10041000012000F018BA2DE9F003CB7803F00F02A9
:1004200013F0100F1CBF8B781A430B784FF00F0797
:1004300013F0FF0F4FF001081ED0046800230825B9
:100440000E8808FA03FC3CEA060611D19E0007FA62
:1004500006F924EA090402FA06F63443CE78282E77
:1004600008BFC0F814C003D0482E08BFC0F810C0A1
:100470005B1C6D1EE4D104600B88FF2B9CBFBDE8A4
:10048000F003704744684FF0000C08250CF1080396
:100490000E8808FA03F333EA060607D06D1E0CF146
:1004A000010CF3D14460BDE8F00370474FEA8C06BD
:1004B00007FA06F924EA090402FA06F63443CE786C
:1004C000282E08BF4361CE78482E08BF0361E5E7B8
:1004D0004FF6FF710180022181700421C1707047C5
:1004E0000246002092680A4218BF012070478068C7
:1004F00080B2704702460020D2680A4218BF01202D
:100500007047C06880B270470161704741617047B1
:10051000002A14BF016141617047C160704741F416
:1005200080328261816182618169806970472C4A71
:1005300013684FF6807C03EA0C0343EA001008437B
:10054000106070472749C861704770B4244A10F0A2
:10055000004F14BFD3695368C0F303444FF4401CE9
:100560003CEA00054FEA505C4FEA0C1C86B206FAE2
:100570000CFC16D010F4801F08BF23EA0C0303D034
:10058000032505FA04F4A34343F07063002918BF60
:100590004CEA030310F0004F14BFD361536070BCEA
:1005A0007047546823F0706324F070645460EDE782
:1005B0008A0721F0030101F1804101F58031120F1A
:1005C0000F23D1F808C093402CEA03038B608B689B
:1005D00090401843886070470249C1F8DC007047BA
:1005E0000000014000002042AD48016841F00101D7
:1005F00001604168AB4A11404160016821F410215B
:1006000021F080710160016821F48021016041685E
:1006100021F4FE0141604FF41F0181607047A04941
:100620000A6822F480320A600A6822F480220A6092
:10063000B0F5803F04BF086840F4803006D0B0F5C4
:10064000802F06BF086840F4A020704708607047FC
:10065000002243099249012B08BF096803D0022BED
:100660000CBF096A496A00F01F00012303FA00F079
:10067000084218BF01221046704781B00020884907
:10068000009000200A6812F4003F18BF0120009A71
:10069000521C0092B2F5A06F01D00028F1D008687A
:1006A00010F4003018BF012001B070477C490A687F
:1006B00022F0F80242EAC000086070477A490860F8
:1006C0007047774A5368084323F47C1318435060FB
:1006D000704775490866704771494A6822F00302FD
:1006E0001043486070476E48406800F00C00704747
:1006F0006B494A6822F0F00210434860704768492D
:100700004A6822F4E06210434860704764494A68CE
:1007100022F4605242EAC00048607047604A0029F3
:10072000517A14BF084321EA0000507270475E49B5
:10073000C1F8D80070475A494A6822F44042104331
:10074000486070475649002281F8202081F8202017
:10075000012803D004280CBF0520704781F8200031
:1007600070475249086070474D490A6A1043086251
:1007700070474F4908607047494910B44A6812F001
:100780000C034C4A18BF042B01D0082B01D0026087
:1007900015E04A684B6802F470124FF0020C13F433
:1007A000803F0CEB924203D04B6813F4003F03D020
:1007B000414B5A43026002E03E4B5A4302604A6892
:1007C0000F2303EA12123D4B9A5CD0F800C02CFABA
:1007D00002F24260D1F804C0072404EA1C2C13F88A
:1007E0000CC022FA0CFCC0F808C0D1F804C004EA1E
:1007F000DC2C13F80C30DA40C2604968032303EAAA
:1008000091312F4B595CB2FBF1F1016110BC704783
:10081000234A0029516914BF084321EA00005061AE
:1008200070471F4A0029916914BF084321EA00005C
:10083000906170471A4A0029D16914BF084321EA20
:100840000000D0617047164A0029D16814BF0843E0
:1008500021EA0000D0607047114A0029116914BFD5
:10086000084321EA0000106170471649086070478C
:100870000D49C86470470A49C87170470848416A01
:1008800041F0807141627047054A0146002092683C
:100890000A4218BF01207047014988727047000062
:1008A000001002400000FFF8000042428004424273
:1008B0003C04424200127A0000093D00180000206A
:1008C000140000204004424210B5A0F18041B1F56F
:1008D000983111D011F5784119D0B1F5806118BF68
:1008E00010BD0121C803FFF7B7FFBDE8104000218C
:1008F0004FF40040FFF7B0BF01210803FFF7A3FF4B
:10090000BDE8104000214FF48050FFF79CBF01214B
:100910008803FFF7A1FFBDE8104000214FF480409D
:10092000FFF79ABF10B402880B88B1F802C0CC88D8
:1009300043EA0C03B1F804C002F441524CEA040C3F
:1009400043EA0C03B1F808C043EA0C03B1F80AC04B
:1009500043EA0C03B1F80CC043EA0C03B1F80EC033
:1009600043EA0C031A430280828B22F400628283E2
:10097000098A018210BC7047F0B505460C4602207A
:100980000021AA8B85B0012622F0BF0222F47062FA
:10099000AA832884AF8BA268022A28D0A0880028C6
:1009A00018BF02266846FFF7E7FEE1880098B1F518
:1009B000007F2DD07101B0FBF1F000EB8000A16849
:1009C0004000B0FBF1F0401D80B268494FF6FF7265
:1009D000A1FB0010C00800F00101401AC0F34F0055
:1009E00002EA0121821EFE2A24BF02200021E288A1
:1009F00008431043288420886188A2890843A1887D
:100A000011430843384340F40060A88305B0F0BDAB
:100A1000000A00EB8000A1684000B0FBF1F0401D2F
:100A200080B2D2E70021018041808180C1800181B4
:100A300041818181C18107210182704700210180AC
:100A400041808180C18002228260818170470029BB
:100A5000018814BF41F0400121F04001018070473E
:100A60000029818B14BF41F4806121F4806181836E
:100A700070470909012303FA01F1002A828889B22B
:100A800014BF114322EA010181807047002A828845
:100A900014BF114322EA01018180704781817047B0
:100AA00080897047A1F57E420188FF3A14BF41F466
:100AB000807121F48071018070470029818814BF02
:100AC00041F0040121F0040181807047028822F482
:100AD000006202800288114301807047018841F45E
:100AE0008051018070470029018814BF41F40051F2
:100AF00021F4005101807047012914BF008B808AC6
:100B00007047008A7047B1F5804F01880CBF41F4EF
:100B1000804121F480410180704702460020128903
:100B20000A4218BF01207047C9430181704701F094
:100B30000F034FF0010C0CFA03F3002209090CFA21
:100B400001F1B0F804C09BB289B200890CEA01013E
:100B500018421CBF002901221046704701F00F0106
:100B6000012202FA01F1C94301817047CDCCCCCCFE
:100B700010B5A0F18041B1F59C3117D011F5744149
:100B80001FD0B1F5806127D0B1F580612FD0B1F5CC
:100B9000806118BF10BD01210805FFF75DFEBDE8AB
:100BA000104000214FF48010FFF756BE012188034A
:100BB000FFF749FEBDE8104000214FF48040FFF7E9
:100BC00042BE01214804FFF747FEBDE81040002166
:100BD0004FF40030FFF740BE01218804FFF73CFED0
:100BE000BDE8104000214FF48020FFF735BE012101
:100BF000C804FFF731FEBDE8104000214FF400208B
:100C0000FFF72ABE30B50446008A85B00D464CF683
:100C1000FF710840E98808432082A0894EF6F3114D
:100C20000840A9882A8911436A8910430843A08192
:100C3000A08A4FF6FF410840A9890843A082684670
:100C4000FFF79AFDA4F18040B0F59C300CBF0398EB
:100C50000298A18911F4004F00EBC00101EB0010D4
:100C6000296814BF49008900B0FBF1F0954A6FF084
:100C7000180CA2FB0031490909010B0903FB0CF315
:100C800000EB8300A38913F4004F4FF0320314BF2D
:100C900003EBC00003EB0010A2FB00204FEA501052
:100CA00014BF00F0070000F00F000843208105B0DA
:100CB00030BD4FF41651016000218180C180018157
:100CC0000C22428181817047028A4FF2FF031A4051
:100CD0000B88B1F802C043EA0C03B1F804C0C9881C
:100CE0004CEA010119431143018270470021018040
:100CF00041808180C18070470029818914BF41F4FF
:100D0000005121F4005181817047C1F3421301F079
:100D10001F014FF0010C0CFA01F1012B08BF0C3040
:100D200003D0022B0CBF10301430002A026814BF0D
:100D3000114322EA010101607047002A828A14BF30
:100D4000114322EA010181827047028A22F00F02D8
:100D50000282028A114301827047828922F4006272
:100D6000828182891143818170470029818914BF62
:100D700041F0020121F0020181817047028A22F0D4
:100D800020020282028A1143018270470029018AEF
:100D900014BF41F4804121F4804101827047C1F3C6
:100DA0000801818070478088C0F3080070478189FE
:100DB00041F0010181817047028BD2B20283028B24
:100DC00042EA012101837047028B02F47F420283D1
:100DD000028B1143018370470029818A14BF41F0BF
:100DE000200121F02001818270470029818A14BFEF
:100DF00041F0100121F01001818270470029818AA1
:100E000014BF41F0080121F00801818270470029D8
:100E1000818914BF41F40041C1F30E018181704703
:100E20000029818A14BF41F4006121F400618182AC
:100E30007047828A22F004028282828A1143818270
:100E400070470029818A14BF41F0020121F002019C
:100E5000818270470246002012880A4218BF012092
:100E60007047C9430180704710B401F01F0201248C
:100E70000023C1F3421C04FA02F2BCF1010F04BFCB
:100E8000B0F80CC00CEA020208D0BCF1020F0CBF93
:100E9000B0F810C0B0F814C00CEA0202090A0088C9
:100EA00004FA01F10840002A1CBF0028012318465B
:100EB00010BC7047090A012202FA01F1C9430180FE
:100EC000704700001F85EB518AB074A0D0E9001074
:100ED000CDE90710FFF726F900F0AAF971A001F09B
:100EE00087FA70A001F084FA6FA001F081FA7148CE
:100EF00001F07EFA704801F07BFA704801F078FA50
:100F00006F4801F075FA6B4801F072FA6DA001F0BC
:100F10006FFA01F0A7F900F03FFB00F0F3FF01F0DA
:100F2000DBF8022001F0CEF901F0C8F84FF00137EC
:100F30004FF0AA084FF0BB0902AD00260A2001F0CD
:100F4000C1F906A9522000F0FBFC0028F6D1BDF83B
:100F5000180044BA21465CA001F04AFAB4F5006FCB
:100F600008BF5EA016D00ADCB4F5007F08BF5FA002
:100F700010D0B4F5806F08BF61A00BD008E0B4F5C5
:100F8000884F08BF63A005D0A4F58840033804D07B
:100F900065A048E001F02CFA02E067A001F028FA11
:100FA00001A800F013FD002818BF68A03BD19DF8F0
:100FB000070000909DF806309DF805209DF804106C
:100FC00067A001F015FA01A800F0E7FD002818BF9E
:100FD0006CA028D101AB07AA0521602000F01BFE00
:100FE000002818BF6CA01ED10122102102A8019771
:100FF00001F088F98DF8088002A9052000F070FE44
:1010000008B16AA00FE002960396049608200596A0
:1010100001F03FF902A9052000F03BFE002808BFBF
:10102000002403D066A001F0E3F987E7295D69A0F9
:1010300001F0DEF9601CC4B2102CF7D33DA001F022
:10104000D7F90222102102A801F05CF98DF808906E
:10105000082001F01EF902A9052000F041FE002839
:10106000CFD1082001F015F902A9052000F011FEEA
:10107000002808BF0024D5D1295D56A001F0B8F999
:10108000601CC4B2102CF7D32AA001F0B1F902966B
:1010900003960496059600F01DFF4FE7FFFFFFFF44
:1010A000FFFF00000C0000001B5B313B34303B3382
:1010B000326D00009029000894280008E8280008F4
:1010C0003C2900080D0A00004361726420547970C5
:1010D0006528307825303458293A00004D6966611A
:1010E00072652050726F2858290A0D004D6966619B
:1010F0007265204F6E6528533730290A0D000000B5
:101100004D6966617265204F6E6528533530290A36
:101110000D0000004D696661726520556C74726146
:101120004C696768740A0D00556E6B6E6F776E20A0
:10113000436172640A0D00004D6966617265204466
:101140004553466972650A0D00000000416E7469DE
:10115000636F6C6C204572726F720A0D00000000A4
:1011600053657269616C204E756D6265723A253007
:1011700032582530325825303258253032580A0D31
:101180000000000053656C65637420436172642045
:101190004572726F720A0D00417574682053746154
:1011A0007465204572726F720A0D000043617264AB
:1011B000205772697465204572726F720A0D0000C3
:1011C000436172642052656164204572726F720AD5
:1011D0000D00000025303258200000007047FEE767
:1011E000FEE7FEE7FEE77047704770477047000074
:1011F000012144F20400FFF714BB38B518208DF824
:1012000003004FF40070ADF8000003202D4C8DF862
:10121000020069462046FFF7FEF804208DF803001F
:101220000002ADF8000069462046FFF7F4F838BD2B
:1012300010B586B0012144F20400FFF7F2FA18203D
:101240008DF813004FF40070ADF8100003201D4C12
:101250008DF8120004A92046FFF7DDF804208DF870
:1012600013000002ADF8100004A92046FFF7D3F8E0
:101270004FF4E13000900020ADF80600ADF8040016
:10128000ADF80800ADF80C000C200F4CADF80A00CA
:1012900069462046FFF7B6FC01212046FFF72CFDEA
:1012A00006B010BD704770B5074D0446C1B2284660
:1012B000FFF775FD80212846FFF7CCFD0028F9D007
:1012C000204670BD000801400038014070B5AF4EA7
:1012D00086B00446B0424FF0010104D141F204004F
:1012E000FFF79FFA06E00820FFF79BFA0121880329
:1012F000FFF7A0FA00201025ADF80400ADF810505B
:10130000ADF80800ADF80C00ADF80A00ADF80E001D
:10131000ADF812004FF482710720ADF80610ADF859
:10132000140001A92046FFF7FDFA03201821B4425A
:1013300018D1E022ADF800208DF80200944E8DF80F
:10134000031069463046FFF766F8ADF800508DF897
:10135000035069463046FFF75EF810213046FFF72C
:10136000D3F819E04FF46042ADF800208DF8020088
:10137000884E8DF8031069463046FFF74CF8B014DC
:10138000ADF800008DF8035069463046FFF743F88A
:10139000B1143046FFF7B8F801212046FFF78DFB66
:1013A00001212046FFF753FB06B070BD2DE9F04147
:1013B0000F4606460221FFF7B0FB44F620640028E2
:1013C00008BF012509D102E06D1CA54215D80221F4
:1013D0003046FFF7A2FB0028F6D039463046FFF72B
:1013E0005DFB01213046FFF798FB002808BF01256F
:1013F0000DD106E06D1CA54203D94FF0FF30BDE8CA
:10140000F08101213046FFF788FB0028F2D03046FA
:10141000FFF746FB0020BDE8F0812DE9F0410E46C4
:1014200007460221FFF779FB44F62065002808BF34
:10143000012409D102E0641CAC4215D802213846CF
:10144000FFF76BFB0028F6D0FF213846FFF726FB9D
:1014500001213846FFF761FB002808BF01240DD1A8
:1014600006E0641CAC4203D94FF0FF30BDE8F081C8
:1014700001213846FFF751FB0028F2D03846FFF72C
:101480000FFB30800020BDE8F0812DE9F0470D46CC
:101490008046571E28BF44F620662ED315F8019BC0
:1014A00002214046FFF739FB002808BF012409D17B
:1014B00002E0641CB44223D802214046FFF72DFB12
:1014C0000028F6D049464046FFF7E8FA0121404699
:1014D000FFF723FB002808BF012409D102E0641CA8
:1014E000B4420DD801214046FFF717FB0028F6D083
:1014F0004046FFF7D5FA7F1ED0D20020BDE8F08726
:101500004FF0FF30BDE8F0872DE9F0470D468146EA
:10151000B2F1010828BF44F6206730D32E466D1C77
:1015200002214846FFF7F9FA002808BF012409D133
:1015300002E0641CBC4225D802214846FFF7EDFAC0
:101540000028F6D0FF214846FFF7A8FA01214846B7
:10155000FFF7E3FA002808BF012409D102E0641C68
:10156000BC420FD801214846FFF7D7FA0028F6D031
:101570004846FFF795FA3080B8F10108CED2002036
:10158000BDE8F0874FF0FF30BDE8F0870030014044
:1015900000080140000C014008B501210820FFF7B8
:1015A00040F94FF40070ADF8000010208DF80300F2
:1015B0006946FE48FEF72FFFFD48FFF787FE08BD8E
:1015C00038B5002200927E2202EA40008DF8000029
:1015D0008DF80110012000F075FEF64C1021204618
:1015E000FEF794FF02226946F148FFF74EFF1021F3
:1015F0002046FEF789FF38BD30B583B000218DF855
:1016000000107E2101EA400040F080008DF80400C7
:10161000012000F057FEE74C10212046FEF776FF30
:10162000E34D012201A92846FFF72FFF0122694659
:101630002846FFF769FF10212046FEF765FF9DF859
:10164000000003B030BD38B50D460446FFF7D4FFA7
:10165000002100917E2101EA440128438DF8001009
:101660008DF80100012000F02DFED24C1021204603
:10167000FEF74CFF02226946CD48FFF706FF102116
:101680002046FEF741FF38BD38B50D460446FFF74A
:10169000B3FF002100917E2101EA4401A8438DF8A7
:1016A00000108DF80100012000F00CFEC14C10214B
:1016B0002046FEF72BFF02226946BD48FFF7E5FEF4
:1016C00010212046FEF720FF38BD2DE9FF4F83B0E3
:1016D0000220029003984FF000089B461746894667
:1016E000C2460C2804BF4FF077084FF0300A05D0EF
:1016F0000E2804BF4FF012084FF0100A48F0800186
:101700000024042000948DF800008DF801100120C1
:1017100000F0D8FDA74E10213046FEF7F7FEA44D8D
:10172000022269462846FFF7B0FE10213046FEF738
:10173000EBFE80210420FFF7A7FF022000948DF824
:1017400000008DF80140012000F0BCFD1021304662
:10175000FEF7DCFE022269462846FFF796FE1021BE
:101760003046FEF7D1FE80210A20FFF76CFF0025EE
:10177000002F1AD919F80500122100948DF80010D5
:101780008DF80100012000F09DFD10213046FEF78C
:10179000BDFE022269468648FFF777FE10213046DB
:1017A000FEF7B2FE6D1CAF42E4D80221009403980C
:1017B0008DF800108DF80100012000F083FD10214C
:1017C00035463046FEF7A2FEDFF8E4910222694674
:1017D0004846FFF75AFE10212846FEF795FE03986B
:1017E0000C2803D180210D20FFF72DFF4FF44877FF
:1017F0004FEA090688208DF804008DF8004001208A
:1018000000F060FD10212846FEF780FE012201A9AC
:101810003046FFF73AFE012269463046FFF774FE74
:1018200010212846FEF770FE9DF800907F1E30D0F4
:1018300019F0010F08BF19EA0A0FDBD080210D2033
:10184000FFF722FF0620FFF7D7FE10F01B0F1CBF8B
:101850000220029022D080210C20FFF7F4FE02200B
:1018600000948DF800008DF80140012000F02AFD61
:1018700010212846FEF74AFE022269463046FFF74D
:1018800004FE10212846FEF73FFE029807B0BDE88F
:10189000F08F80210D20FFF7F7FEDCE7002002909B
:1018A00009EA080010F0010F1CBF01200290039804
:1018B0000C28D0D10A20FFF79FFE07460C20FFF727
:1018C0009BFE10F007004FEAC70104BF10980160AB
:1018D00003D00839014410980160002F08BF012788
:1018E00003D0122F88BF122702D94FF0000803E05F
:1018F0004FF00008002FAED94FF092098DF800404C
:101900008DF80490012000F0DDFC10212846FEF740
:10191000FDFD012201A93046FFF7B7FD012269460E
:101920003046FFF7F1FD10212846FEF7EDFD9DF84A
:1019300000000BF8080008F10108B845DED38AE77B
:1019400070B50C460546082188B00846FFF79CFE96
:10195000002100911A2107208DF800108DF8010058
:10196000012000F0AFFC134E10213046FEF7CEFDF3
:10197000022269460E48FFF788FD10213046FEF727
:10198000C3FD03211420FFF75EFE06A801AB009003
:101990008DF80450012219460C20FFF796FE00280E
:1019A00007BF06991029022008B005E0000C01408D
:1019B000003001400008014018BF70BD9DF80410C0
:1019C00021709DF80510617008B070BD70B50646B5
:1019D000082188B000240846FFF756FE00201A218F
:1019E00000908DF800108DF80100012000F06AFCD5
:1019F000FE4D10212846FEF789FD02226946FC486B
:101A0000FFF743FD10212846FEF77EFD80210E20C2
:101A1000FFF73AFE93208DF8040020208DF8050092
:101A200006A801AB0090022219460C20FFF74DFEDC
:101A3000050019D1721E0DF10301022311F8010FE7
:101A4000507011F8010B80EA040C087802F8020FBC
:101A5000087880EA0C04581E10F0FF03EED19DF8C0
:101A60000800A04218BF022580210E20FFF7EBFDE1
:101A700008B0284670BD2DE9F0470E46074682B0F3
:101A8000914604210520FFF7FFFD4FF000080220DA
:101A9000CDF800808DF800008DF80180012000F065
:101AA00011FCD24D10212846FEF730FDDFF840A38F
:101AB000022269465046FFF7E8FC10212846FEF74F
:101AC00023FD80210A20FFF7BEFD0024002E1BD934
:101AD000385D1221CDF800808DF800108DF80100DE
:101AE000012000F0EFFB10212846FEF70FFD022237
:101AF00069465046FFF7C9FC10212846FEF704FD51
:101B0000601CC4B2A642E3D80221CDF800800320B5
:101B10008DF800108DF80100012000F0D3FB10219A
:101B20002846FEF7F3FC022269465046FFF7ADFC5B
:101B300010212846FEF7E8FCFF248A268DF8008055
:101B40008DF80460012000F0BDFB10212846FEF74F
:101B5000DDFC012201A95046FFF797FC01226946EE
:101B60005046FFF7D1FC10212846FEF7CDFC9DF82A
:101B70000000611E11F0FF0402D010F0040FDDD050
:101B80002220FFF739FD89F800002120FFF734FDFE
:101B900089F8010002B0BDE8F08700B587B0932155
:101BA0008DF8041070218DF8051000218DF80A10B1
:101BB00001788DF8061001788DF80A1042788DF8BA
:101BC0000720427851408DF80A1082788DF808205D
:101BD000827851408DF80A10C2788DF80920C078BB
:101BE00048408DF80A0001A8C21D0721FFF743FFF6
:101BF00008210846FFF748FD06A801AB009009221E
:101C000019460C20FFF761FD002806BF0699182928
:101C1000022007B000BD10B588B08DF804008DF823
:101C2000051010788DF8060050788DF80700907830
:101C30008DF80800D0788DF8090010798DF80A0029
:101C400050798DF80B0018788DF80C0058788DF8C5
:101C50000D0098788DF80E00D8788DF80F0018795F
:101C60008DF8100058798DF8110006A801AB00908E
:101C70000C2219460E20FFF728FD040005D108208C
:101C8000FFF7BAFC10F0080F00D1022408B020467C
:101C900010BD10B588B00C4630218DF804108DF8B9
:101CA000050001A8821C0221FFF7E5FE06A801AB92
:101CB0000090042219460C20FFF707FD002807BFFB
:101CC00006999029022008B018BF10BD0199216023
:101CD000029961600399A1600499E16008B010BDA8
:101CE00070B588B00E46A0218DF8041001AC8DF8B7
:101CF0000500A21C02212046FFF7BDFE06AD01AB88
:101D0000042219460C200095FFF7DFFC002804BFD1
:101D10000698042827D19DF8040000F00F000A2837
:101D200021D13068019070680290B0680390F0682B
:101D3000049004F11002102101A8FFF79CFE01ABF2
:101D4000122219460C200095FFF7BFFC002804BFA3
:101D50000699042907D19DF8041001F00F010A2902
:101D600004BF08B070BD022008B070BDF0B587B0E8
:101D700001AC8DF8040017460E468DF80510A21C24
:101D800002212046FFF777FE06AD01AB042219467B
:101D90000C200095FFF799FC002804BF0698042842
:101DA00043D19DF8040000F00F000A283DD13868A7
:101DB000019078680290B8680390F8680490221D3A
:101DC000042101A8FFF757FE002001AB0690062270
:101DD000194600950C20FFF778FC022804BF07B0D5
:101DE000F0BDB0208DF8040004E0000000080140C0
:101DF000003001408DF80560A21C022101A8FFF708
:101E00003AFE01AB042219460C200095FFF75DFC59
:101E1000002804BF0699042907D19DF8041001F099
:101E20000F010A2904BF07B0F0BD022007B0F0BDC2
:101E300070B588B00E46C2218DF8041001AC8DF843
:101E40000500A21C02212046FFF715FE06AD01ABDE
:101E5000042219460C200095FFF737FC002804BF28
:101E60000698042833D19DF8040000F00F000A28DA
:101E70002DD100200190221D042101A8FFF7FBFDB8
:101E800001AB062219460C200095FFF71EFC022824
:101E90001DD0B0208DF804008DF80560A21C022131
:101EA00001A8FFF7E8FD01AB042219460C200095BC
:101EB000FFF70BFC002804BF0699042907D19DF801
:101EC000041001F00F010A2904BF08B070BD022000
:101ED00008B070BD00B587B050208DF80400002018
:101EE0008DF8050001A8821C0221FFF7C4FD06A899
:101EF00001AB0090042219460C20FFF7E6FB07B067
:101F0000002000BDF8B5D44C4FF400712046FEF718
:101F1000FBFA0A2000F0BDF961152046FEF7F6FA3B
:101F20003C2000F0CFF961152046FEF7EDFA4FF4A2
:101F3000FA7000F0AEF90024022100940F208DF811
:101F400000108DF80100012000F0BCF9C34D1021F4
:101F50002846FEF7DBFAC24E022269463046FFF7FA
:101F600094FA10212846FEF7CFFA022000F0AAF9D1
:101F7000222100943D208DF800108DF801000120F1
:101F800000F0A0F910212846FEF7C0FA02226946A7
:101F90003046FFF77AFA10212846FEF7B5FA5A21A3
:101FA00000941E208DF800108DF80100012000F033
:101FB00089F910212846FEF7A9FA0222694630461F
:101FC000FFF763FA10212846FEF79EFA5820009486
:101FD0008DF800008DF80140012000F073F9102108
:101FE0002846FEF793FA022269463046FFF74DFA7B
:101FF00010212846FEF788FA542100948D208DF890
:1020000000108DF80100012000F05CF91021284635
:10201000FEF77CFA022269463046FFF736FA1021B5
:102020002846FEF771FA562100943E228DF80010E2
:102030008DF80120012000F045F910212846FEF717
:1020400065FA022269463046FFF71FFA102128463A
:10205000FEF75AFA2A21009440228DF800108DF8DC
:102060000120012000F02EF910212846FEF74EFA3B
:10207000022269463046FFF708FA10212846FEF78B
:1020800043FA80213320FFF7FFFA2A2100944020F1
:102090008DF800108DF80100012000F013F91021D7
:1020A0002846FEF733FA022269463046FFF7EDF97B
:1020B00010212846FEF728FA0020F8BD10B514209C
:1020C000FFF79AFA10F0030F18BF10BD0321BDE807
:1020D00010401420FFF7B7BA03211420FFF7D4BA39
:1020E000412818BF7047F8B508210846FFF7CCFA19
:1020F0000024222100943D208DF800108DF801006D
:10210000012000F0DFF8554D10212846FEF7FEF9BA
:10211000534E022269463046FFF7B7F91021284690
:10212000FEF7F2F92E21009486208DF800108DF82C
:102130000100012000F0C6F810212846FEF7E6F95C
:10214000022269463046FFF7A0F910212846FEF723
:10215000DBF94C2100947F208DF800108DF80100F0
:10216000012000F0AFF810212846FEF7CFF9022237
:1021700069463046FFF789F910212846FEF7C4F971
:102180005A2100941E228DF800108DF801200120A4
:1021900000F098F810212846FEF7B8F902226946A7
:1021A0003046FFF772F910212846FEF7ADF95820A6
:1021B00000948DF800008DF80140012000F082F8B5
:1021C00010212846FEF7A2F9022269463046FFF7A1
:1021D0005CF910212846FEF797F9542100948D22CE
:1021E0008DF800108DF80120012000F06BF810210F
:1021F0002846FEF78BF9022269463046FFF745F97B
:1022000010212846FEF780F9562100943E208DF8D3
:1022100000108DF80100012000F054F8102128462C
:10222000FEF774F9022269463046FFF72EF91021B5
:102230002846FEF769F9052000F044F81420FFF75E
:10224000DBF910F0030F18BFF8BD0321BDE8F8401B
:102250001420FFF7F8B90000000C0140000801400D
:102260000030014010B56FF00400FEF757F8224827
:1022700022490068B0FBF1F0C1B2214801EB4102F4
:102280000170C2EBC1114FF6FF7202EAC101418039
:1022900010BD1B49097841434FF0E0204161002304
:1022A0008361016941F001010161016911F0010FD0
:1022B00002D011F4803FF8D0016921F001010161E1
:1022C000836170470E49498841434FF0E0204161E6
:1022D00000238361016941F001010161016911F08D
:1022E000010F02D011F4803FF8D0016921F0010103
:1022F00001618361704700000000002000127A0035
:102300002C000020D2B201E000F8012B491EFBD2C4
:1023100070470022F6E710B513460A4604461946F0
:10232000FFF7F0FF204610BD2DE9F05F05460020C5
:1023300092469B4688460646814640241BE0284636
:1023400041464746224600F042F853465A46C01AD4
:10235000914110D311461846224600F029F82D1A53
:1023600067EB01084F4622460120002100F020F8CB
:1023700017EB00094E41201EA4F10104DFDC4846A2
:1023800031462A464346BDE8F09F0000064C074D03
:1023900006E0E06840F0010394E807009847103435
:1023A000AC42F6D3FDF7A6FEE4290008042A000893
:1023B000202A04DB203A00FA02F100207047914005
:1023C000C2F1200320FA03F3194390407047202AFA
:1023D00004DB203A21FA02F00021704721FA02F3CF
:1023E000D040C2F1200291400843194670470000D6
:1023F0000FB4054B10B503A9044A029800F018F871
:1024000010BC5DF814FB0000A71200082800002093
:1024100002E008C8121F08C1002AFAD170477047AD
:10242000002001E001C1121F002AFBD1704700000B
:102430002DE9FF4F8DB00F460546002606E0252802
:102440000BD0DDE90F1290476D1C761C2878002810
:10245000F5D111B03046BDE8F08F0024A246A14668
:102460000122EC4900E0044315F8013F203B02FA49
:1024700003F00842F7D128782A2810D06FF02F02F5
:102480002878A0F13001092914D80AEB8A0102EB5F
:10249000410144F0020400EB010A6D1CF0E701CF9A
:1024A0005FEA000A03D544F40054CAF1000A44F07C
:1024B00002046D1C28782E2817D115F8010F44F05E
:1024C00004042A280ED06FF02F022878A0F13001E2
:1024D00009290AD809EB890102EB410100EB010946
:1024E0006D1CF2E757F8049B6D1C28786C280FD000
:1024F00006DC4C2817D068280DD06A2814D104E0D7
:10250000742810D07A280FD10DE044F400140AE0AA
:1025100044F4801401E044F440146978814202D10B
:1025200004F580146D1C6D1C2A786E2A1FD00CDCFB
:10253000632A31D004DC002A8BD0582A11D1A3E0C1
:10254000642A68D0692A0CD165E0732A2ED004DC95
:102550006F2A73D0702A04D19BE0752A6FD0782A35
:102560006ED01046DDE90F129047761C50E1C4F39F
:102570000250022806D0032809D0042801CF09D030
:10258000066045E101CFF117C0E9006140E101CFEC
:1025900006803DE106703BE117F8040B8DF8000062
:1025A00000208DF80100EB46012003E057F804BB42
:1025B0004FF0FF3061074FF0000102D40DE008F149
:1025C0000101884649450FDA8045F8DB1BF8081001
:1025D0000029F4D108E008F1010188468142FADBC4
:1025E0001BF808100029F6D1DDE90F23AAEB08003B
:1025F0008146214600F036F9304400EB080604E03D
:10260000DDE90F121BF8010B9047B8F10108F7D272
:1026100021464846F7E00A21C4F302534FF0000B6D
:102620000891022B04D001CFC117032B09D00AE077
:10263000FF1D27F00707F7E8020108E032E01FE07E
:1026400020E000B2C117042B01D140B2C117031E14
:1026500071F1000307DA4FF0000CD0EB0C006CEBCB
:1026600001012D2302E0230504D52B238DF824300E
:10267000012303E0E30701D02023F7E7984658E061
:102680000A2110E010210EE010204FF0000B0890FE
:102690000CE010214FF0000B44F004044FF0080947
:1026A000089103E008214FF0000B0891C4F3025396
:1026B000022B04D001CF0021032B06D006E0FF1D22
:1026C00027F00707F7E8020103E080B2042B00D1EE
:1026D000C0B24FF0000823072BD5702A07D0DDF8D1
:1026E00020C08CF0100C5CEA0B0C05D00EE04023EF
:1026F0008DF82430012308E050EA010306D030238E
:102700008DF824308DF8252002239846DDF820C06E
:102710008CF0080C5CEA0B0C0BD150EA010301D1E0
:10272000630706D530238DF824304FF00108A9F156
:102730000109582A04D038A20B9208AA0A920BE089
:102740003AA2F9E75B46089AFFF7EEFD0B9B9B5C0C
:102750000A9A521E0A92137050EA0102F2D10A98A4
:10276000ADEB000000F1200B600702D524F48034AB
:1027700001E04FF00109D94502DDA9EB0B0000E0B3
:10278000002000EB0B0141440890AAEB010AE00392
:1027900006D4DDE90F232146504600F063F80644D5
:1027A0004FF0000908E009A911F80900DDE90F124E
:1027B000904709F10109761CC145F4DBE0030CD513
:1027C000DDE90F232146504600F04CF8064404E0B2
:1027D000DDE90F1230209047761C0899481E0890BA
:1027E0000029F5DC08E00A980A990078491C0A914A
:1027F000DDE90F129047761CBBF10001ABF1010B34
:10280000F1DC21465046DDE90F2300F019F80644BB
:102810006D1C1BE609280100303132333435363760
:10282000383961626364656600000000303132331C
:1028300034353637383941424344454600000000BC
:102840002DE9F041044600251E461746880404D4AD
:1028500005E039462020B0476D1C641EF9D5284696
:10286000BDE8F0812DE9F041044600251E46904662
:10287000C80301D5302700E02027880404D505E0EF
:1028800041463846B0476D1C641EF9D52846BDE860
:10289000F08100000D0A2A2A2A2A2A2A2A2A2A2A0C
:1028A0002A2A2A2A2A2A2A2A2A2A2A2A2A2A204379
:1028B0006F7079726967687420323030392D323028
:1028C00031322C2056696577546F6F6C202A2A2A82
:1028D0002A2A2A2A2A2A2A2A2A2A2A2A2A2A2A2A58
:1028E0002A2A2A2A2A0000000D0A2A2A2A2A2A2A03
:1028F0002A2A2A2A2A2A2A2A2A2A2A2A2A2A2A2A38
:102900002A2A2A20687474703A2F2F7777772E76C8
:10291000696577746F6F6C2E636F6D2F62627320C1
:102920002A2A2A2A2A2A2A2A2A2A2A2A2A2A2A2A07
:102930002A2A2A2A2A2A2A2A2A0000000D0A2A2AB2
:102940002A2A2A2A2A2A2A2A2A2A2A2A2A2A2A2AE7
:102950002A2A2A2A2A2A2A2A2A2A2A20416C6C2050
:102960005269676874732052657365727665642076
:102970002A2A2A2A2A2A2A2A2A2A2A2A2A2A2A2AB7
:102980002A2A2A2A2A2A2A2A2A2A2A2A2A00000025
:102990000D0A2A2A2A2A2A2A2A2A2A2A2A2A2A2AD4
:1029A0002A2A2A2A2A2A2A2A2A2A2A2A2A2A2A2A87
:1029B0002A2A2A2A2A2A2A2A2A2A2A2A2A2A2A2A77
:1029C0002A2A2A2A2A2A2A2A2A2A2A2A2A2A2A2A67
:1029D0002A2A2A2A2A2A2A2A2A2A2A2A2A2A2A2A57
:1029E0002A000000042A0008000000203000000037
:1029F00010240008342A00083000002000040000E1
:102A00002024000800A24A0400000000000000008A
:102A1000010203040607080902040608000000007A
:102A20000102030401020304060708090000000074
:042A300000000000A2
:04000005080000ED02
:00000001FF
