:020000040800F2
:10000000900600203502000801240008032400089F
:100010000524000807240008092400080000000047
:100020000000000000000000000000000B24000899
:100030000D240008000000000F240008112400080F
:100040004F0200084F0200084F0200084F0200084C
:100050004F0200084F0200084F0200084F0200083C
:100060004F0200084F0200084F0200084F0200082C
:100070004F0200084F0200084F0200084F0200081C
:100080004F0200084F0200084F0200084F0200080C
:100090004F0200084F0200084F0200084F020008FC
:1000A0004F0200084F0200084F0200084F020008EC
:1000B0004F0200084F0200084F0200084F020008DC
:1000C0004F0200084F0200084F0200084F020008CC
:1000D0004F0200084F0200084F0200084F020008BC
:1000E0004F0200084F0200084F02000800F002F81B
:1000F00000F090F80AA090E8000C82448344AAF132
:100100000107DA4501D100F085F8AFF2090EBAE82F
:100110000F0013F0010F18BFFB1A43F0010318473B
:100120006857000088570000103A24BF78C878C18B
:10013000FAD8520724BF30C830C144BF04680C60ED
:10014000704700000023002400250026103A28BF35
:1001500078C1FBD8520728BF30C148BF0B60704739
:100160006E2903F0E187702903F0D785662905F031
:100170006582652905F06282672905F05F82612941
:1001800005F05E8203681B0A28BF41F080016929DF
:1001900003F08E87642903F08B87752903F0888725
:1001A0006F2904F0D980782903F0A385E92904F0A8
:1001B0007380E42904F07080F52904F06D80EF2944
:1001C00004F0D680F82903F0A2850368DB0928BF74
:1001D00041F08001632903F0E287732903F0E78788
:1001E000E32904F0CB84F32904F0D0840020704785
:1001F0001FB504F021FD04000020002105F008FADD
:10020000401C60600020002105F0ECF9E0601FBD9B
:1002100010B510BD04F0E2FC1146FFF7E9FF01F054
:100220003CFE04F0BBFD03B4FFF7F2FF03BC02F099
:100230004BF900000948804709480047FEE7FEE700
:10024000FEE7FEE7FEE7FEE7FEE7FEE7FEE7FEE786
:1002500004480549054A064B70470000750200082E
:10026000ED00000890000020900600209002002081
:10027000900200204D4882B0016841F00101016008
:1002800041684B4A11404160016821F4102121F07E
:1002900080710160016821F480210160416821F4CE
:1002A000FE0141604FF41F01816000220192009223
:1002B000016841F480310160016801F4003100916E
:1002C0000199491C0191009919B90199B1F5A06FE3
:1002D000F2D1016811F4003F08BF009233D0012130
:1002E000009134490A6842F010020A600A6822F05C
:1002F00003020A600A6842F002020A604168416033
:1003000041684160416841F480614160416821F485
:100310007C114160416841F4E8114160016841F09D
:1003200080710160016811F0007FFBD0416821F00D
:1003300003014160416841F002014160416801F000
:100340000C010829FAD11C494FF00060086002B086
:10035000704716494868194A10F00C03184818BF2E
:10036000042B01D0082B01D0026015E04A684B68CD
:1003700002F470124FF0020C13F4803F0CEB924227
:1003800003D04B6813F4003F03D00E4B5A43026076
:1003900002E00A4B5A43026049680B4AC1F3031159
:1003A000515C026822FA01F10160704700100240BE
:1003B0000000FFF80020024008ED00E000127A0083
:1003C0000000002000093D00040000202D4940F0FD
:1003D000FD7040F080600860704710B4C27801780A
:1003E0004FF00F0C012322B3264A126801F1E021DD
:1003F00002F4E062C2F5E062120AC2F104042CFACF
:1004000002F290F801C00CFA04FC8478224042EA1F
:100410000C02120181F80024007800F01F0103FA99
:1004200001F14009800000F1E020C0F8001110BC8B
:10043000704701F01F0003FA00F04909890001F13B
:10044000E021C1F8800110BC704721F07F0121F04C
:10045000604108430C49086070470C4A0029116844
:1004600014BF084321EA0000106070474FF0E021FC
:10047000042808690CBF40F0040020F00400086163
:10048000704700000CED00E008ED00E010ED00E02A
:1004900010B5A0F18041B1F584311DD0B1F5806176
:1004A00024D0B1F580612BD0B1F5806132D0B1F5A7
:1004B000806139D0B1F5806140D0B1F5806118BF5D
:1004C00010BD0121080200F066FABDE810400021CD
:1004D0004FF4807000F05FBA0121042000F05BFA55
:1004E0000021BDE81040042000F055BA0121082089
:1004F00000F051FA0021BDE81040082000F04BBA8E
:100500000121102000F047FA0021BDE81040102022
:1005100000F041BA0121202000F03DFA0021BDE8A1
:100520001040202000F037BA0121402000F033FABB
:100530000021BDE81040402000F02DBA01218020AC
:1005400000F029FA0021BDE81040802000F023BA15
:1005500010B50121084600F01EFA0021BDE8104048
:10056000012000F018BA2DE9F003CB7803F00F0258
:1005700013F0100F1CBF8B781A430B784FF00F0746
:1005800013F0FF0F4FF001081ED004680023082568
:100590000E8808FA03FC3CEA060611D19E0007FA11
:1005A00006F924EA090402FA06F63443CE78282E26
:1005B00008BFC0F814C003D0482E08BFC0F810C050
:1005C0005B1C6D1EE4D104600B88FF2B9CBFBDE853
:1005D000F003704744684FF0000C08250CF1080345
:1005E0000E8808FA03F333EA060607D06D1E0CF1F5
:1005F000010CF3D14460BDE8F00370474FEA8C066C
:1006000007FA06F924EA090402FA06F63443CE781A
:10061000282E08BF4361CE78482E08BF0361E5E766
:100620004FF6FF710180022181700421C170704773
:100630000246002092680A4218BF01207047806875
:1006400080B2704702460020D2680A4218BF0120DB
:100650007047C06880B27047016170474161704760
:10066000002A14BF016141617047C160704741F4C5
:1006700080328261816182618169806970472C4A20
:1006800013684FF6807C03EA0C0343EA001008432A
:10069000106070472749C861704770B4244A10F051
:1006A000004F14BFD3695368C0F303444FF4401C98
:1006B0003CEA00054FEA505C4FEA0C1C86B206FA91
:1006C0000CFC16D010F4801F08BF23EA0C0303D0E3
:1006D000032505FA04F4A34343F07063002918BF0F
:1006E0004CEA030310F0004F14BFD361536070BC99
:1006F0007047546823F0706324F070645460EDE731
:100700008A0721F0030101F1804101F58031120FC8
:100710000F23D1F808C093402CEA03038B608B6849
:1007200090401843886070470249C1F8DC00704768
:100730000000014000002042AD48016841F0010185
:1007400001604168AB4A11404160016821F4102109
:1007500021F080710160016821F48021016041680D
:1007600021F4FE0141604FF41F0181607047A049F0
:100770000A6822F480320A600A6822F480220A6041
:10078000B0F5803F04BF086840F4803006D0B0F573
:10079000802F06BF086840F4A020704708607047AB
:1007A000002243099249012B08BF096803D0022B9C
:1007B0000CBF096A496A00F01F00012303FA00F028
:1007C000084218BF01221046704781B000208849B6
:1007D000009000200A6812F4003F18BF0120009A20
:1007E000521C0092B2F5A06F01D00028F1D0086829
:1007F00010F4003018BF012001B070477C490A682E
:1008000022F0F80242EAC000086070477A490860A6
:100810007047774A5368084323F47C1318435060A9
:10082000704775490866704771494A6822F00302AB
:100830001043486070476E48406800F00C007047F5
:100840006B494A6822F0F0021043486070476849DB
:100850004A6822F4E06210434860704764494A687D
:1008600022F4605242EAC00048607047604A0029A2
:10087000517A14BF084321EA0000507270475E4964
:10088000C1F8D80070475A494A6822F440421043E0
:10089000486070475649002281F8202081F82020C6
:1008A000012803D004280CBF0520704781F82000E0
:1008B00070475249086070474D490A6A1043086200
:1008C00070474F4908607047494910B44A6812F0B0
:1008D0000C034C4A18BF042B01D0082B01D0026036
:1008E00015E04A684B6802F470124FF0020C13F4E2
:1008F000803F0CEB924203D04B6813F4003F03D0CF
:10090000414B5A43026002E03E4B5A4302604A6840
:100910000F2303EA12123D4B9A5CD0F800C02CFA68
:1009200002F24260D1F804C0072404EA1C2C13F838
:100930000CC022FA0CFCC0F808C0D1F804C004EACC
:10094000DC2C13F80C30DA40C2604968032303EA58
:1009500091312F4B595CB2FBF1F1016110BC704732
:10096000234A0029516914BF084321EA000050615D
:1009700070471F4A0029916914BF084321EA00000B
:10098000906170471A4A0029D16914BF084321EACF
:100990000000D0617047164A0029D16814BF08438F
:1009A00021EA0000D0607047114A0029116914BF84
:1009B000084321EA0000106170471649086070473B
:1009C0000D49C86470470A49C87170470848416AB0
:1009D00041F0807141627047054A014600209268EB
:1009E0000A4218BF01207047014988727047000011
:1009F000001002400000FFF8000042428004424222
:100A00003C04424200127A0000093D001800002018
:100A1000140000204004424210B5A0F18041B1F51D
:100A2000983111D011F5784119D0B1F5806118BF16
:100A300010BD0121C803FFF7B7FFBDE8104000213A
:100A40004FF40040FFF7B0BF01210803FFF7A3FFF9
:100A5000BDE8104000214FF48050FFF79CBF0121FA
:100A60008803FFF7A1FFBDE8104000214FF480404C
:100A7000FFF79ABF10B402880B88B1F802C0CC8887
:100A800043EA0C03B1F804C002F441524CEA040CEE
:100A900043EA0C03B1F808C043EA0C03B1F80AC0FA
:100AA00043EA0C03B1F80CC043EA0C03B1F80EC0E2
:100AB00043EA0C031A430280828B22F40062828391
:100AC000098A018210BC7047F0B505460C46022029
:100AD0000021AA8B85B0012622F0BF0222F47062A9
:100AE000AA832884AF8BA268022A28D0A088002875
:100AF00018BF02266846FFF7E7FEE1880098B1F5C7
:100B0000007F2DD07101B0FBF1F000EB8000A168F7
:100B10004000B0FBF1F0401D80B268494FF6FF7213
:100B2000A1FB0010C00800F00101401AC0F34F0003
:100B300002EA0121821EFE2A24BF02200021E2884F
:100B400008431043288420886188A2890843A1882B
:100B500011430843384340F40060A88305B0F0BD5A
:100B6000000A00EB8000A1684000B0FBF1F0401DDE
:100B700080B2D2E70021018041808180C180018163
:100B800041818181C181072101827047002101805B
:100B900041808180C180022282608181704700296A
:100BA000018814BF41F0400121F0400101807047ED
:100BB0000029818B14BF41F4806121F4806181831D
:100BC00070470909012303FA01F1002A828889B2DA
:100BD00014BF114322EA010181807047002A8288F4
:100BE00014BF114322EA010181807047818170475F
:100BF00080897047A1F57E420188FF3A14BF41F415
:100C0000807121F48071018070470029818814BFB0
:100C100041F0040121F0040181807047028822F430
:100C2000006202800288114301807047018841F40C
:100C30008051018070470029018814BF41F40051A0
:100C400021F4005101807047012914BF008B808A74
:100C50007047008A7047B1F5804F01880CBF41F49E
:100C6000804121F4804101807047024600201289B2
:100C70000A4218BF01207047C9430181704701F043
:100C80000F034FF0010C0CFA03F3002209090CFAD0
:100C900001F1B0F804C09BB289B200890CEA0101ED
:100CA00018421CBF002901221046704701F00F01B5
:100CB000012202FA01F1C94301817047CDCCCCCCAD
:100CC00010B5A0F18041B1F596313BD0B0F1804F25
:100CD0004DD011F5943140D0B1F5806151D0B1F5CE
:100CE000806158D0B1F580615FD0B1F5806166D088
:100CF000B1F590316DD0B1F5C05175D0B1F58061CD
:100D00007DD0B1F580617DD011F59E317BD0B1F5FC
:100D1000806179D0B1F5806177D0B1F5903175D02F
:100D2000B1F5806173D0B1F5806118BF10BD0121AC
:100D30008804FFF730FEBDE8104000214FF480200A
:100D4000FFF729BE0121C802FFF725FEBDE81040CC
:100D500000214FF40060FFF71EBE01210220FFF7C3
:100D600023FE0021BDE810400220FFF71DBE012137
:100D70000846FFF719FE0021BDE810400120FFF7EB
:100D800013BE01210420FFF70FFE0021BDE8104033
:100D90000420FFF709BE01210820FFF705FE00210E
:100DA000BDE810400820FFF7FFBD01211020FFF72C
:100DB000FBFD0021BDE810401020FFF7F5BD01212B
:100DC0002020FFF7F1FD0021BDE810402020FFF7B3
:100DD000EBBD01214803FFF7DEFDBDE81040002117
:100DE0004FF40050FFF7D7BD0121C804FFF7D3FD32
:100DF000BDE8104000214FF40020FFF7CCBD0121D9
:100E0000080505E00DE017E020E029E033E03DE0D3
:100E1000FFF7C1FDBDE8104000214FF48010FFF73F
:100E2000BABD01214805FFF7B6FDBDE8104000211D
:100E30004FF40010FFF7AFBD01214020FFF7B4FDD4
:100E40000021BDE810404020FFF7AEBD0121802009
:100E5000FFF7AAFD0021BDE810408020FFF7A4BDE8
:100E600001210802FFF7A0FDBDE8104000214FF46A
:100E70008070FFF799BD01210804FFF78CFDBDE8E4
:100E8000104000214FF48030FFF785BD0121480458
:100E9000FFF781FDBDE8104000214FF40030FFF75F
:100EA0007ABD10B40288FD4BDFF8F4C3984218BF36
:100EB000604511D0B0F1804F1CBFA0F18044B4F563
:100EC000806409D0A0F18044B4F500641CBFA0F197
:100ED0008044B4F5406403D14C8822F07002224370
:100EE000A0F18044B4F580541CBFA0F18044B4F557
:100EF000A05403D0CC8822F44072224302808A8816
:100F000082850A880285984218BF60450DD0A0F1FD
:100F10008042B2F5A0321FBFA0F18042B2F5A232EA
:100F2000A0F18042B2F5A43201D1097A01860121F3
:100F3000818210BC704710B4028C22F0010202843E
:100F4000028C8388B0F818C00C882CF0730C44EA2B
:100F50000C0C0C8922F0020222434C882243A0F19F
:100F60008044B4F596341CBFA0F18044B4F59A34A3
:100F70000DD0A0F18044B4F5A0341FBFA0F180448F
:100F8000B4F5A234A0F18044B4F5A4340DD14C8959
:100F900022F0080222438C8822F0040222438C892A
:100FA00023F440732343CC8923438380A0F818C0E3
:100FB000C9888186028410BC704730B4028C22F04C
:100FC00010020284038CB0F804C0028B0D8822F456
:100FD000E6444FF6FF7202EA05252C430D8923F003
:100FE000200302EA05152B434D8802EA05152B4321
:100FF000A0F18045B5F596351CBFA0F18045B5F54B
:101000009A3517D14D8923F0800302EA05152B4349
:101010008D8823F0400302EA05152B438D892CF4BB
:10102000406C02EA850545EA0C0CCD8902EA85028E
:1010300042EA0C0CA0F804C00483C9880187038429
:1010400030BC704730B4028C22F480720284028C6F
:101050008388B0F81CC00C882CF0730C44EA0C0494
:1010600022F4007C0D894FF6FF7202EA052545EA5D
:101070000C0C4D8802EA052545EA0C0CA0F18045D0
:10108000B5F596351CBFA0F18045B5F59A3517D159
:101090004D892CF4006C02EA052545EA0C0C8D887C
:1010A0002CF4806C02EA052545EA0C0C8D8923F4AA
:1010B000405302EA05152B43CD8902EA051213437A
:1010C00083808483C9888187A0F820C030BC7047A2
:1010D00030B4028C22F480520284048C8288838B88
:1010E0000D8823F4E64C4FF6FF7303EA052545EA25
:1010F0000C0C0D8924F4005403EA05352C434D886B
:1011000003EA05352C43A0F18045B5F596351CBFA3
:10111000A0F18045B5F59A3505D18D8922F480423C
:1011200003EA85131A438280A0F81CC0C988A0F87E
:101130004010048430BC7047828B22F4406282836A
:10114000828B4FF6FF7303EA0121114381837047BD
:10115000828B22F00C028283828B11438183704741
:10116000028B22F440620283028B4FF6FF7303EA84
:101170000121114301837047028B22F00C0202838C
:10118000028B1143018370472DE9F05F0E46044640
:10119000B1F800904148DFF808C1424FDFF80881FC
:1011A000DFF808E14988B28833894FF6FF75B9F155
:1011B000000F3ED0B9F1040F7CD0B9F1080FB4F89C
:1011C000209076D029F48059A4F82090B4F81CA07F
:1011D000B4F820902AF4734A05EA022242EA0A028D
:1011E00005EA03331A4305EA013B844218BF64450C
:1011F0000BD0B4F1804F18BFBC4206D044451EBF8F
:10120000744529F40240084303D129F4005040EA10
:101210000B0040F48050A2832084B079A18B21F48C
:101220004061A183A18B05EA00200843A083BDE8AB
:10123000F09FB4F8209029F00109A4F82090B4F8A8
:1012400018A0B4F8209005EA03131A432AF0F30A11
:1012500042EA0A02844218BF644508D0B4F1804FC4
:1012600018BFBC4203D0444518BF744505D129F0CE
:101270000200084340F0010004E029F00A0008439E
:1012800040F0010022832084F088218B21F00C01A2
:101290002183218B08432083BDE8F09F002C01406F
:1012A000003401400004004000080040000C0040F1
:1012B00000E00DE0204600F0A3FBB079218B21F483
:1012C00040612183218B05EA002008432083E3E766
:1012D00029F48079A4F82090B4F81CA0B4F82090E8
:1012E00005EA03131A432AF0F30A05EA012B42EA3E
:1012F0000A02844218BF64450BD0B4F1804F18BF76
:10130000BC4206D044451EBF744529F42060084302
:1013100003D129F4007040EA0B0040F48070A283EE
:101320002084F088A18B21F00C01A183A18B0843BC
:10133000A083B1E72DE9F05F0D464988002601271B
:101340000446002908BF0226AA88012A08BF0227EE
:101350002888DFF82897DFF828A7DFF828B72B8937
:101360004FF6FF78002843D0204600F049FBA879CB
:10137000218B21F440612183218B08EA002008435E
:1013800020832989208C20F001002084228B208C4E
:1013900008EA011122F0F302394311435C4518BFFA
:1013A0004C451FD0B4F1804F18BF54451AD0A4F15A
:1013B0008043B3F500631CBFA4F18043B3F54063E1
:1013C00010D020F00A00304340F001002183208437
:1013D000E888218B21F00C012183218B0843208395
:1013E000BDE8F09F20F00200304340F00100EDE73F
:1013F000208C20F001002084B4F818C0208C08EA6A
:1014000003131A432CF0F30C42EA0C025C4518BF9C
:101410004C452FD0B4F1804F18BF54452AD0A4F1C9
:101420008043B3F500631CBFA4F18043B3F5406370
:1014300020D020F00A00084340F0010022832084DD
:10144000E888218B21F00C012183218B0843208324
:101450002B893A463146204600F0D2FAA879218BF2
:1014600021F440612183218B08EA00200843208376
:10147000BDE8F09F20F00200084340F00100DDE7E6
:101480000A884B88B1F806C01A438B8843EA0C03DC
:101490001A430B891A434B8989891A431143A0F8CF
:1014A000441070474FF6FF71818000210180C18098
:1014B0004180017270470021018041808180C1809C
:1014C000018141818181C18170470021018041807A
:1014D00001228280C180018170470021018041800A
:1014E0008180C1800181418181817047002901880B
:1014F00014BF41F0010121F0010101807047002972
:10150000B0F8441014BF41F40041C1F30E01A0F83B
:1015100044107047002A828914BF114322EA010156
:1015200081817047818270471143A0F8481070474D
:10153000002A828914BF114322EA01018181704788
:10154000018921F0070101817047028922F07002B0
:10155000114301817047028922F070021143018119
:10156000018941F007010181704770B594460D462D
:101570000446602943D0208C20F001002084218B78
:10158000208C4FF6FF7202EA031221F0F30142F0C1
:1015900001021143A4F18042B2F596321CBFA4F1BE
:1015A0008043B3F59A3323D0B4F1804F1CBFA4F12C
:1015B0008043B3F580631BD0A4F18043B3F500638F
:1015C0001CBFA4F18043B3F5406311D020F00A00A2
:1015D00040EA0C0040F0010021832084208920F0A3
:1015E000700028432081208940F00700208170BDD1
:1015F00020F0020040EA0C0040F00100ECE701227C
:10160000614600F0FDF9E9E710B4B0F808C04FF604
:10161000FF7404EA03231A430CF0FF0C114341EA60
:101620000C01018110BC704710B4B0F808C04FF62F
:10163000FF7404EA03231A430CF0FF0C114341EA40
:101640000C010181018941F07701018110BC7047D3
:1016500010B4B0F808C04FF6FF7404EA03231A432D
:101660000CF0FF0C114341EA0C010181018941F4A6
:101670008041018110BC70470185828270470288D9
:1016800022F0700211430180704730B40589B0F830
:1016900018C0048C25F0070529432CF0030C2CF40A
:1016A000407C40F201154CEA050C4FF6FF7505EA47
:1016B000031324F022041A4322430181A0F818C026
:1016C000028430BC7047028B22F070021143018308
:1016D0007047028B4FF6FF7322F4E04203EA0121C8
:1016E000114301837047828B22F070021143818382
:1016F0007047828B4FF6FF7322F4E04203EA012128
:101700001143818370470029018814BF41F0800193
:1017100021F08001018070470029818814BF41F0C9
:10172000040121F00401818070470029818814BFE1
:1017300041F0080121F0080181807047002981886B
:1017400014BF41F0010121F0010181807047028B3B
:1017500022F00802114301837047028B4FF6FF739A
:1017600022F4006203EA0121114301837047828B56
:1017700022F00802114381837047828B4FF6FF737A
:1017800022F4006203EA0121114381837047028B36
:1017900022F00402114301837047028B4FF6FF735E
:1017A00022F4806203EA0121114301837047828B96
:1017B00022F00402114381837047828B4FF6FF733E
:1017C00022F4806203EA0121114381837047028B76
:1017D00022F08002114301837047028B4FF6FF73A2
:1017E000C2F30E0203EA0121114301837047828B89
:1017F00022F08002114381837047828B4FF6FF7382
:10180000C2F30E0203EA0121114381837047028C67
:1018100022F00202114301847047028C22F0080278
:10182000114301847047028C4FF6FF7322F02002AF
:1018300003EA0111114301847047028C4FF6FF73D4
:1018400022F0800203EA0111114301847047028CE7
:101850004FF6FF7322F4007203EA01211143018461
:101860007047028C4FF6FF7322F4006203EA0121F5
:10187000114301847047028C4FF6FF7322F400522B
:1018800003EA01311143018470470123B0F820C0FD
:101890008B402CEA03030384038C02FA01F1194301
:1018A000018470470423B0F820C08B402CEA030366
:1018B0000384038C02FA01F119430184704710B4C8
:1018C0004FF0010C048C00F118030CFA01FC24EA1F
:1018D0000C0CA0F820C0002918BF082910D0081F40
:1018E000C0F34E001844016821F4E0410160016832
:1018F0004FF6FF7303EA02221143016010BC7047E8
:1019000003EB5100016821F070010160016811438F
:10191000016010BC70470029018814BF41F002012A
:1019200021F00201018070470029018814BF41F0B5
:10193000040121F00401018070470029818814BF4F
:1019400041F0800121F0800181807047028822F0FF
:10195000080202800288114301807047828822F0C9
:10196000700282808288114381807047028922F050
:10197000070202810289114301817047028922F026
:10198000800202810289114301817047818470477E
:1019900081857047818670470187704781877047CE
:1019A000A0F840107047028822F44072028002883A
:1019B000114301807047808E7047008F7047808F81
:1019C0007047B0F840007047808C7047008D7047BA
:1019D00002460020128A0A4218BF01207047C943FC
:1019E00001827047038A002280890B4200EA0100CD
:1019F0001CBF0028012210467047C943018270476E
:101A000070B4B0F820C02CF0100CA0F820C0068BE9
:101A1000B0F820C04FF6FF7426F4734604EA03338F
:101A2000334304EA02221A43A0F1804304EA011579
:101A3000B3F596331CBFA0F18043B3F59A3314D0AD
:101A4000B0F1804F1CBFA0F18043B3F580630CD090
:101A5000A0F18043B3F500631FBFA0F18043B3F54D
:101A600040632CF0A003194302D12CF0200129433C
:101A700041F010010283018470BC704700340140C2
:101A800000040040002C014010B5A0F18041B1F5E8
:101A90009C3117D011F574411FD0B1F5806127D06A
:101AA000B1F580612FD0B1F5806118BF10BD012163
:101AB0000805FEF779FFBDE8104000214FF48010C3
:101AC000FEF772BF01218803FEF765FFBDE81040F5
:101AD00000214FF48040FEF75EBF01214804FEF76D
:101AE00063FFBDE8104000214FF40030FEF75CBFFB
:101AF00001218804FEF758FFBDE8104000214FF493
:101B00008020FEF751BF0121C804FEF74DFFBDE85C
:101B1000104000214FF40020FEF746BF30B50446C8
:101B2000008A85B00D464CF6FF710840E9880843ED
:101B30002082A0894EF6F3110840A9882A89114312
:101B40006A8910430843A081A08A4FF6FF410840EC
:101B5000A9890843A0826846FEF7B6FEA4F180403A
:101B6000B0F59C300CBF03980298A18911F4004F86
:101B700000EBC00101EB0010296814BF4900890087
:101B8000B0FBF1F0954A6FF0180CA2FB0031490947
:101B900009010B0903FB0CF300EB8300A38913F489
:101BA000004F4FF0320314BF03EBC00003EB0010F3
:101BB000A2FB00204FEA501014BF00F0070000F015
:101BC0000F000843208105B030BD4FF4165101606D
:101BD00000218180C18001810C2242818181704776
:101BE000028A4FF2FF031A400B88B1F802C043EAA1
:101BF0000C03B1F804C0C9884CEA01011943114330
:101C0000018270470021018041808180C18070473E
:101C10000029818914BF41F4005121F400518181D0
:101C20007047C1F3421301F01F014FF0010C0CFA91
:101C300001F1012B08BF0C3003D0022B0CBF103078
:101C40001430002A026814BF114322EA0101016026
:101C50007047002A828A14BF114322EA010181825F
:101C60007047028A22F00F020282028A1143018227
:101C70007047828922F400628281828911438181C6
:101C800070470029818914BF41F0020121F002014F
:101C900081817047028A22F020020282028A114367
:101CA000018270470029018A14BF41F4804121F468
:101CB000804101827047C1F30801818070478088AC
:101CC000C0F308007047818941F0010181817047AC
:101CD000028BD2B20283028B42EA01210183704758
:101CE000028B02F47F420283028B1143018370470F
:101CF0000029818A14BF41F0200121F02001818256
:101D000070470029818A14BF41F0100121F01001B1
:101D1000818270470029818A14BF41F0080121F0B7
:101D20000801818270470029818914BF41F4004174
:101D3000C1F30E01818170470029818A14BF41F4EB
:101D4000006121F4006181827047828A22F00402DE
:101D50008282828A1143818270470029818A14BF5E
:101D600041F0020121F00201818270470246002009
:101D700012880A4218BF01207047C943018070478A
:101D800010B401F01F0201240023C1F3421C04FA25
:101D900002F2BCF1010F04BFB0F80CC00CEA020261
:101DA00008D0BCF1020F0CBFB0F810C0B0F814C0DE
:101DB0000CEA0202090A008804FA01F10840002A2C
:101DC0001CBF00280123184610BC7047090A0122D5
:101DD00002FA01F1C9430180704700001F85EB51F1
:101DE000F8B5044601210C20FEF7C3FD48208DF80C
:101DF000030003208DF802004FF48070E64EADF82A
:101E0000000069463046FEF7AEFB4FF47040E34DEC
:101E1000ADF8000069462846FEF7A5FBA915304637
:101E2000FEF706FC06464FF400412846FEF700FC8C
:101E300046EA40064FF480412846FEF7F9FB46EAA1
:101E4000800669142846FEF7F3FB46EAC006A9148B
:101E50002846FEF7EDFB46EA0010C1B22170D0A083
:101E600001F0AAFEF8BD1021CC48FEF7F5BB102109
:101E7000CA48FEF7F3BB08B501210820FEF779FD3B
:101E80001020ADF800008DF8030003208DF802004B
:101E90006946C248FEF767FB08BDC7A1CAB0D1E9D1
:101EA0000001CDE94801FEF7E5F900F0D3FA01F0B1
:101EB000AFFC00F0E9FC01F09DF901F084FA02208A
:101EC00001F0D6FC01F071FA01210820FEF751FD66
:101ED0001020ADF800008DF80300B04E03248DF8FB
:101EE000024069463046FEF73EFB01210C20FEF71A
:101EF00040FD48208DF803008DF80240B015A64C37
:101F0000ADF8000069462046FEF72DFB4FF4704007
:101F1000ADF8000069463046FEF725FBA1152046C6
:101F2000FEF786FB04464FF400413046FEF780FB87
:101F300044EA40044FF480413046FEF779FB44EA1E
:101F4000800471143046FEF773FB44EAC004B114F8
:101F50003046FEF76DFB44EA0010C1B290A001F0DC
:101F60002BFE0A2143F63F0001F0A2FCB215944972
:101F700002A801F0CCFF0020401CC0B26428FBD3B3
:101F80004FF001384FF0AA094FF0BB0A42AC0027CE
:101F90000A2001F06DFC47A9262000F049FE002828
:101FA000F6D101F0E1FD10213046FEF755FBBDF8FA
:101FB0001C0184A145BA2A4602A801F009FEB5F524
:101FC000006F33D006DCB5F5007F26D0B5F5806F05
:101FD00019D006E0B5F5884F0CD0A5F58840033838
:101FE0002DD07DA102A801F086FF01467EA001F060
:101FF000E3FDCDE77DA102A801F07DFF01467AA0B7
:1020000001F0DAFD23E02A467DA102A801F0E0FDFF
:1020100081B202A800F075FA19E082A102A801F0CD
:102020006AFF014670A001F0C7FD10E082A102A87E
:1020300001F061FF01466CA001F0BEFD07E082A146
:1020400002A801F058FF014667A001F0B5FD46A8BF
:1020500000F034FE002818BF80A03BD19DF81B1172
:102060009DF81A01CDE900019DF819319DF818215C
:102070007FA102A801F0ACFD81B202A800F041FAF4
:1020800046A800F002FF002818BF82A022D186A037
:1020900001F092FD46AB48AA0521602000F033FF15
:1020A000002818BF84A015D1642102A800F042FACC
:1020B00086A001F081FD0122102142A8CDF81881EF
:1020C00001F057FF8DF8089142A9052000F080FF2C
:1020D00018B182A001F070FD5AE785A001F06CFDF7
:1020E0004297439744970820459701F0C1FB42A9C6
:1020F000052000F046FF002814BF87A00025E9D185
:10210000615D8AA001F058FD681CC5B2102DF7D39F
:1021100088A001F051FD95A001F04EFD0222102192
:1021200042A801F026FF8DF808A1082001F0A0FBCD
:1021300042A9052000F04CFF0028CAD190A001F070
:102140003BFD082001F094FB42A9052000F019FF97
:10215000002808BF002503D06FA001F02DFD17E770
:10216000615D72A001F028FD681CC5B2102DF7D387
:102170008EA001F021FD9DA001F01EFD4297439726
:102180004497459701F01EF8012001F0EDFC102165
:102190003046FEF763FAFBE600080140000C014000
:1021A000525334383520616464722069732030786A
:1021B000253032780A000000FFFFFFFFFFFF00001C
:1021C0004456000843617264205479706528307861
:1021D00025303458293A0000556E6B6E6F776E20AB
:1021E000436172640A0D0000257300004D69666149
:1021F000726520556C7472614C696768740A0D00D1
:1022000043617264205479706528307825303458E1
:10221000293A4D6966617265204F6E6528533530E5
:10222000290A0D004D6966617265204F6E6528535D
:102230003730290A0D0000004D6966617265205033
:10224000726F2858290A0D004D6966617265204435
:102250004553466972650A0D00000000416E7469BD
:10226000636F6C6C204572726F720A0D0000000083
:1022700053657269616C204E756D6265723A2530E6
:1022800032582530325825303258253032580A0D10
:102290000000000053656C65637420436172642024
:1022A0004572726F720A0D0050636453656C65630A
:1022B00074204F4B0A0D00004175746820537461FF
:1022C0007465204572726F720A0D00004175746862
:1022D000205374617465204F4B0A0D004361726492
:1022E000205772697465204572726F720A0D000082
:1022F00043617264205772697465206161204F4B9D
:1023000020202020202020202020202020202020CD
:1023100020200A0D000000004361726420526561B4
:1023200064204572726F720A0D0000002530325829
:10233000200A0000616161616120202020202020AE
:102340002020202020202020202020202020206449
:102350006F6E65202020202020202020202020209B
:1023600020202020202020200A0D000043617264DC
:10237000205265616420616120646F6E650A0D0002
:1023800043617264205772697465206262204F4B0A
:10239000202020202020202020202020202020203D
:1023A0002020202020200A0D0000000062626262CE
:1023B00062202020202020202020202020202020DB
:1023C000202020202020202020646F6E65202020E7
:1023D00020202020202020202020202020202020FD
:1023E0002020202020200A0D00000000436172649C
:1023F000205265616420626220646F6E650A0D0080
:102400007047FEE7FEE7FEE7FEE77047704770475C
:1024100070470000012144F20400FEF7AABA38B563
:1024200018208DF803004FF40070ADF80000032071
:10243000604C8DF8020069462046FEF794F80420AF
:102440008DF803000002ADF8000069462046FEF753
:102450008AF838BD10B586B0012144F20400FEF7B9
:1024600088FA18208DF813004FF40070ADF81000B2
:102470000320504C8DF8120004A92046FEF773F893
:1024800004208DF813000002ADF8100004A92046C6
:10249000FEF769F84FF4E13000900020ADF8060037
:1024A000ADF80400ADF80800ADF80C000C20424C6B
:1024B000ADF80A0069462046FFF730FB01212046AF
:1024C000FFF7A6FB06B010BD704770B53A4D044645
:1024D000C1B22846FFF7EFFB80212846FFF746FCF4
:1024E0000028F9D0204670BD10B5334C0146204677
:1024F000FFF7E1FB80212046FFF738FC0028F9D0E8
:1025000010BD2DE9F0410D46064600242A4F0AE091
:102510003846FFF7D0FB80213846FFF727FC00281C
:10252000F9D0601C84B2315D002918BFAC42EFD3F2
:10253000BDE8F08170B50546481E84B22CBF1E4E22
:1025400070BD00BF15F8011B3046FFF7B4FB8021BA
:102550003046FFF70BFC0028F9D0611E8CB2F1D297
:1025600070BD0FB44FF48071F0B5C1B0684601F092
:1025700008FD47AA6846469901F00CFB6D462846BF
:1025800001F09AFC86B200240B4F0AE03846FFF7B0
:1025900092FB80213846FFF7E9FB0028F9D0601C48
:1025A00084B2295D002918BFB442EFD341B0F0BC1A
:1025B0005DF814FB000801400038014070B5AF4ED3
:1025C00086B00446B0424FF0010104D141F204004C
:1025D000FEF7CFF906E00820FEF7CBF901218803CA
:1025E000FEF7D0F900201025ADF80400ADF810502A
:1025F000ADF80800ADF80C00ADF80A00ADF80E001B
:10260000ADF812004FF482710720ADF80610ADF856
:10261000140001A92046FEF72DFA03201821B44228
:1026200018D1E022ADF800208DF80200944E8DF80C
:10263000031069463046FDF796FFADF800508DF85F
:10264000035069463046FDF78EFF10213046FEF7F5
:1026500003F819E04FF46042ADF800208DF8020055
:10266000884E8DF8031069463046FDF77CFFB014A4
:10267000ADF800008DF8035069463046FDF773FF52
:10268000B1143046FDF7E8FF01212046FEF7BDFA00
:1026900001212046FEF783FA06B070BD2DE9F04116
:1026A0000F4606460221FEF7E0FA44F620640028B1
:1026B00008BF012509D102E06D1CA54215D80221F1
:1026C0003046FEF7D2FA0028F6D039463046FEF7FB
:1026D0008DFA01213046FEF7C8FA002808BF01250F
:1026E0000DD106E06D1CA54203D94FF0FF30BDE8C7
:1026F000F08101213046FEF7B8FA0028F2D03046CA
:10270000FEF776FA0020BDE8F0812DE9F0410E4693
:1027100007460221FEF7A9FA44F62065002808BF03
:10272000012409D102E0641CAC4215D802213846CC
:10273000FEF79BFA0028F6D0FF213846FEF756FA3E
:1027400001213846FEF791FA002808BF01240DD177
:1027500006E0641CAC4203D94FF0FF30BDE8F081C5
:1027600001213846FEF781FA0028F2D03846FEF7FC
:102770003FFA30800020BDE8F0812DE9F0470D469A
:102780008046571E28BF44F620662ED315F8019BBD
:1027900002214046FEF769FA002808BF012409D14A
:1027A00002E0641CB44223D802214046FEF75DFAE1
:1027B0000028F6D049464046FEF718FA0121404667
:1027C000FEF753FA002808BF012409D102E0641C77
:1027D000B4420DD801214046FEF747FA0028F6D052
:1027E0004046FEF705FA7F1ED0D20020BDE8F087F4
:1027F0004FF0FF30BDE8F0872DE9F0470D468146E8
:10280000B2F1010828BF44F6206730D32E466D1C74
:1028100002214846FEF729FA002808BF012409D101
:1028200002E0641CBC4225D802214846FEF71DFA8E
:102830000028F6D0FF214846FEF7D8F90121484686
:10284000FEF713FA002808BF012409D102E0641C36
:10285000BC420FD801214846FEF707FA0028F6D0FF
:102860004846FEF7C5F93080B8F10108CED2002005
:10287000BDE8F0874FF0FF30BDE8F0870030014041
:1028800000080140000C014008B501210820FEF7B6
:1028900070F80120ADF8000010208DF803006946A3
:1028A000FE48FDF760FEFE48FFF788FE08BD38B51C
:1028B000002200927E2202EA40008DF800008DF88E
:1028C0000110012000F0D4FFF64C10212046FDF746
:1028D000C5FE02226946F248FFF74FFF102120464D
:1028E000FDF7BAFE38BD30B583B000218DF8001079
:1028F0007E2101EA400040F080008DF804000120B4
:1029000000F0B6FFE74C10212046FDF7A7FEE44D8E
:10291000012201A92846FFF730FF01226946284617
:10292000FFF76AFF10212046FDF796FE9DF8000094
:1029300003B030BD38B50D460446FFF7D4FF002183
:1029400000917E2101EA440128438DF800108DF8A2
:102950000100012000F08CFFD24C10212046FDF731
:102960007DFE02226946CE48FFF707FF1021204670
:10297000FDF772FE38BD38B50D460446FFF7B3FFCC
:10298000002100917E2101EA4401A8438DF8001046
:102990008DF80100012000F06BFFC24C1021204691
:1029A000FDF75CFE02226946BD48FFF7E6FE1021F6
:1029B0002046FDF751FE38BD2DE9FF4F83B00220C0
:1029C000029003984FF000089B4617468946C2467E
:1029D0000C2804BF4FF077084FF0300A05D00E28BE
:1029E00004BF4FF012084FF0100A48F08001002495
:1029F000042000948DF800008DF80110012000F0F3
:102A000037FFA84E10213046FDF728FEA44D0222C4
:102A100069462846FFF7B1FE10213046FDF71CFE3F
:102A200080210420FFF7A7FF022000948DF800000A
:102A30008DF80140012000F01BFF10213046FDF70A
:102A40000DFE022269462846FFF797FE1021304608
:102A5000FDF702FE80210A20FFF76CFF0025002F02
:102A60001BD900BF19F80500122100948DF8001041
:102A70008DF80100012000F0FBFE10213046FDF72B
:102A8000EDFD022269468648FFF777FE10213046A9
:102A9000FDF7E2FD6D1CAF42E4D8022100940398DB
:102AA0008DF800108DF80100012000F0E1FE1021EA
:102AB00035463046FDF7D2FDDFF8E4910222694643
:102AC0004846FFF75AFE10212846FDF7C5FD03983A
:102AD0000C2803D180210D20FFF72CFF4FF44877FD
:102AE0004FEA090688208DF804008DF80040012087
:102AF00000F0BEFE10212846FDF7B0FD012201A91D
:102B00003046FFF73AFE012269463046FFF774FE71
:102B100010212846FDF7A0FD9DF800907F1E30D0C3
:102B200019F0010F08BF19EA0A0FDBD080210D2030
:102B3000FFF721FF0620FFF7D6FE10F01B0F1CBF8A
:102B40000220029022D080210C20FFF7F3FE022009
:102B500000948DF800008DF80140012000F088FEFF
:102B600010212846FDF77AFD022269463046FFF71C
:102B700004FE10212846FDF76FFD029807B0BDE85E
:102B8000F08F80210D20FFF7F6FEDCE70020029099
:102B900009EA080010F0010F1CBF01200290039801
:102BA0000C28D0D10A20FFF79EFE07460C20FFF725
:102BB0009AFE10F007004FEAC70104BF10980160A9
:102BC00003D00839014410980160002F08BF012785
:102BD00003D0122F88BF122702D94FF0000803E05C
:102BE0004FF00008002FAED94FF092098DF8004049
:102BF0008DF80490012000F03BFE10212846FDF7DF
:102C00002DFD012201A93046FFF7B7FD01226946DB
:102C10003046FFF7F1FD10212846FDF71DFD9DF818
:102C200000000BF8080008F10108B845DED38AE778
:102C300070B50C460546082188B00846FFF79BFE94
:102C4000002100911A2107208DF800108DF8010055
:102C5000012000F00DFE134E10213046FDF7FEFC62
:102C6000022269460E48FFF788FD10213046FDF725
:102C7000F3FC03211420FFF75DFE06A801AB0090D2
:102C80008DF80450012219460C20FFF795FE00280C
:102C900007BF06991029022008B005E0000C01408A
:102CA000003001400008014018BF70BD9DF80410BD
:102CB00021709DF80510617008B070BD70B50646B2
:102CC000082188B000240846FFF755FE00201A218D
:102CD00000908DF800108DF80100012000F0C8FD73
:102CE000FE4D10212846FDF7B9FC02226946FC483A
:102CF000FFF743FD10212846FDF7AEFC80210E2092
:102D0000FFF739FE93208DF8040020208DF8050090
:102D100006A801AB0090022219460C20FFF74CFEDA
:102D2000050019D1721E0DF10301022311F8010FE4
:102D3000507011F8010B80EA040C087802F8020FB9
:102D4000087880EA0C04581E10F0FF03EED19DF8BD
:102D50000800A04218BF022580210E20FFF7EAFDDF
:102D600008B0284670BD2DE9F0470E46074682B0F0
:102D7000914604210520FFF7FEFD4FF000080220D8
:102D8000CDF800808DF800008DF80180012000F062
:102D90006FFDD24D10212846FDF760FCDFF840A3FF
:102DA000022269465046FFF7E8FC10212846FDF74D
:102DB00053FC80210A20FFF7BDFD0024002E1BD903
:102DC000385D1221CDF800808DF800108DF80100DB
:102DD000012000F04DFD10212846FDF73FFC0222A6
:102DE00069465046FFF7C9FC10212846FDF734FC20
:102DF000601CC4B2A642E3D80221CDF800800320B3
:102E00008DF800108DF80100012000F031FD102137
:102E10002846FDF723FC022269465046FFF7ADFC29
:102E200010212846FDF718FCFF248A268DF8008023
:102E30008DF80460012000F01BFD10212846FDF7ED
:102E40000DFC012201A95046FFF797FC01226946BB
:102E50005046FFF7D1FC10212846FDF7FDFB9DF8F9
:102E60000000611E11F0FF0402D010F0040FDDD04D
:102E70002220FFF738FD89F800002120FFF733FDFD
:102E800089F8010002B0BDE8F08700B587B0932152
:102E90008DF8041070218DF8051000218DF80A10AE
:102EA00001788DF8061001788DF80A1042788DF8B7
:102EB0000720427851408DF80A1082788DF808205A
:102EC000827851408DF80A10C2788DF80920C078B8
:102ED00048408DF80A0001A8C21D0721FFF743FFF3
:102EE00008210846FFF747FD06A801AB009009221C
:102EF00019460C20FFF760FD002806BF0699182927
:102F0000022007B000BD10B588B08DF804008DF820
:102F1000051010788DF8060050788DF8070090782D
:102F20008DF80800D0788DF8090010798DF80A0026
:102F300050798DF80B0018788DF80C0058788DF8C2
:102F40000D0098788DF80E00D8788DF80F0018795C
:102F50008DF8100058798DF8110006A801AB00908B
:102F60000C2219460E20FFF727FD040005D108208A
:102F7000FFF7B9FC10F0080F00D1022408B020467A
:102F800010BD10B588B00C4630218DF804108DF8B6
:102F9000050001A8821C0221FFF7E5FE06A801AB8F
:102FA0000090042219460C20FFF706FD002807BFF9
:102FB00006999029022008B018BF10BD0199216020
:102FC000029961600399A1600499E16008B010BDA5
:102FD00070B588B00E46A0218DF8041001AC8DF8B4
:102FE0000500A21C02212046FFF7BDFE06AD01AB85
:102FF000042219460C200095FFF7DEFC002804BFD0
:103000000698042827D19DF8040000F00F000A2834
:1030100021D13068019070680290B0680390F06828
:10302000049004F11002102101A8FFF79CFE01ABEF
:10303000122219460C200095FFF7BEFC002804BFA1
:103040000699042907D19DF8041001F00F010A29FF
:1030500004BF08B070BD022008B070BDF0B587B0E5
:1030600001AC8DF8040017460E468DF80510A21C21
:1030700002212046FFF777FE06AD01AB0422194678
:103080000C200095FFF798FC002804BF0698042840
:1030900043D19DF8040000F00F000A283DD13868A4
:1030A000019078680290B8680390F8680490221D37
:1030B000042101A8FFF757FE002001AB069006226D
:1030C000194600950C20FFF777FC022804BF07B0D3
:1030D000F0BDB0208DF8040004E0000000080140BD
:1030E000003001408DF80560A21C022101A8FFF705
:1030F0003AFE01AB042219460C200095FFF75CFC58
:10310000002804BF0699042907D19DF8041001F096
:103110000F010A2904BF07B0F0BD022007B0F0BDBF
:1031200070B588B00E46C2218DF8041001AC8DF840
:103130000500A21C02212046FFF715FE06AD01ABDB
:10314000042219460C200095FFF736FC002804BF26
:103150000698042833D19DF8040000F00F000A28D7
:103160002DD100200190221D042101A8FFF7FBFDB5
:1031700001AB062219460C200095FFF71DFC022822
:103180001DD0B0208DF804008DF80560A21C02212E
:1031900001A8FFF7E8FD01AB042219460C200095B9
:1031A000FFF70AFC002804BF0699042907D19DF8FF
:1031B000041001F00F010A2904BF08B070BD0220FD
:1031C00008B070BD00B587B050208DF80400002015
:1031D0008DF8050001A8821C0221FFF7C4FD06A896
:1031E00001AB0090042219460C20FFF7E5FB07B065
:1031F000002000BDF8B5FE4C01212046FDF72CFA59
:103200000A2000F01CFB01212046FDF727FA3C2094
:1032100000F02EFB01212046FDF71EFA4FF4FA7054
:1032200000F00DFB0024022100940F208DF8001007
:103230008DF80100012000F01BFBEE4D1021284607
:10324000FDF70CFAEC4E022269463046FFF795FA7C
:1032500010212846FDF700FA022000F009FB222188
:1032600000943D208DF800108DF80100012000F041
:10327000FFFA10212846FDF7F1F90222694630468F
:10328000FFF77BFA10212846FDF7E6F95A21009452
:103290001E208DF800108DF80100012000F0E8FAE2
:1032A00010212846FDF7DAF9022269463046FFF779
:1032B00064FA10212846FDF7CFF9582000948DF8C4
:1032C00000008DF80140012000F0D2FA10212846BC
:1032D000FDF7C4F9022269463046FFF74EFA102185
:1032E0002846FDF7B9F9542100948D208DF800107F
:1032F0008DF80100012000F0BBFA10212846FDF7EF
:10330000ADF9022269463046FFF737FA1021284608
:10331000FDF7A2F9562100943E228DF800108DF899
:103320000120012000F0A4FA10212846FDF796F9AB
:10333000022269463046FFF720FA10212846FDF7A1
:103340008BF92A21009440228DF800108DF801207D
:10335000012000F08DFA10212846FDF77FF90222A6
:1033600069463046FFF709FA10212846FDF774F93F
:1033700080213320FFF7FFFA2A21009440208DF8A6
:1033800000108DF80100012000F072FA102128468B
:10339000FDF764F9022269463046FFF7EEF9102185
:1033A0002846FDF759F90020F8BD10B51420FFF7A5
:1033B0009AFA10F0030F18BF10BD0321BDE81040AA
:1033C0001420FFF7B7BA03211420FFF7D4BA41281D
:1033D00018BF7047F8B508210846FFF7CCFA00245B
:1033E000222100943D208DF800108DF8010001206D
:1033F00000F03EFA7F4D10212846FDF72FF97E4E52
:10340000022269463046FFF7B8F910212846FDF739
:1034100023F92E21009486208DF800108DF80100EC
:10342000012000F025FA10212846FDF717F90222A5
:1034300069463046FFF7A1F910212846FDF70CF93F
:103440004C2100947F208DF800108DF801000120A0
:1034500000F00EFA10212846FDF700F90222694615
:103460003046FFF78AF910212846FDF7F5F85A2172
:1034700000941E228DF800108DF80120012000F02C
:10348000F7F910212846FDF7E9F80222694630468F
:10349000FFF773F910212846FDF7DEF85820009455
:1034A0008DF800008DF80140012000F0E1F91021B5
:1034B0002846FDF7D3F8022269463046FFF75DF94A
:1034C00010212846FDF7C8F8542100948D228DF86C
:1034D00000108DF80120012000F0CAF910212846C3
:1034E000FDF7BCF8022269463046FFF746F9102185
:1034F0002846FDF7B1F8562100943E208DF80010C3
:103500008DF80100012000F0B3F910212846FDF7E5
:10351000A5F8022269463046FFF72FF91021284608
:10352000FDF79AF8052000F0A3F91420FFF7DBF966
:1035300010F0030F18BFF8BD0321BDE8F8401420B8
:10354000FFF7F8B92DE9F0432C489BB00DAD90E89A
:103550000E1085E80E100169119100F1140108ADFB
:1035600091E80E1085E80E10406A08210C904FF08B
:1035700052080846FFF7FFF900251A210095072099
:103580008DF800108DF80100012000F071F9194E3E
:1035900010213046FDF762F8174F0222694638467F
:1035A000FFF7EBF810213046FDF756F80321142001
:1035B000FFF7C0F918A801AB00908DF80480012234
:1035C00019460C20FFF7F8F9002804BF18981028B6
:1035D00040F0E0809DF8040060F307049DF80500CA
:1035E00060F30F24A0B241BAB1F5884F08E00000A3
:1035F000000C014000080140003001404457000821
:1036000018BFB1F5806F0AD0B1F5007F1EBFB1F5CC
:10361000006FA1F58840B0F1030040F0BB800821A5
:103620000DF11C0900240846FFF7A5F91A200095A2
:103630008DF800008DF80150012000F019F91021DB
:103640003046FDF70BF8022269463846FFF795F839
:1036500010213046FDF700F880210E20FFF78BF98E
:103660004FF093088DF8088020208DF8090019A8E4
:1036700002AB0090022219460C20FFF79DF9D8B941
:103680000DF10701A9F101025FF0020311F8010F2A
:10369000507011F8010B91F800C002F802CF91F8B8
:1036A00000C060408CEA0004581E10F0FF03EDD10A
:1036B0009DF80C00A04204D080210E20FFF73AF9BB
:1036C00068E080210E20FFF735F98DF80480702026
:1036D0008DF805009DF81C008DF806009DF81D1062
:1036E0008DF8071041409DF81E008DF808004840F5
:1036F0009DF81F108DF8091048408DF80A0001A8A8
:10370000C21D0721FFF72FFB08210846FFF733F9F9
:1037100006A801AB0090092219460C20FFF74CF9CE
:10372000002804BF0698182834D150208DF80400D2
:1037300001A88DF80550821C0221FFF714FB06A892
:1037400001AB0090042219460C20FFF735F91A212D
:10375000009507208DF800108DF80100012000F081
:1037600087F810213046FCF779FF02226946384677
:10377000FFF703F810213046FCF76EFF40208DF86C
:10378000480017AC12AB012219460C200094FFF739
:1037900013F918B11BB00220BDE8F0831A20009580
:1037A0008DF800008DF80150012000F061F8102123
:1037B0003046FCF753FF022269463846FEF7DDFF2C
:1037C00010213046FCF748FF43208DF8480012AB2B
:1037D000012219460C200094FFF7EEF80028D9D1F9
:1037E0000DAB042219460C200094FFF7E5F80028E1
:1037F000D0D108A80CAA1021FFF7B5FA08AB122205
:1038000019460C200094FFF7D7F81BB0BDE8F083F1
:1038100010B56FF00400FCF729FE22482249006829
:10382000B0FBF1F0C1B2214801EB41020170C2EBE3
:10383000C1114FF6FF7202EAC101418010BD1B4960
:10384000097841434FF0E020416100238361016921
:1038500041F001010161016911F0010F02D011F481
:10386000803FF8D0016921F0010101618361704757
:103870000E49498841434FF0E020416100238361B4
:10388000016941F001010161016911F0010F02D0EC
:1038900011F4803FF8D0016921F0010101618361D9
:1038A000704700000000002000127A002C00002069
:1038B00030B50C46054689B001210220FDF762F8BB
:1038C00001210920FDF755F80121AB48FCF7E5FE81
:1038D0002020ADF81C0018208DF81F0003208DF863
:1038E0001E0007A9A548FCF73EFEADF81450ADF840
:1038F00010400024A24DADF81640ADF8124004A9C6
:103900002846FDF7CEFA7020ADF800000120ADF892
:1039100002000220ADF80800ADF8064069462846CE
:10392000FDF74BFB08212846FDF717FF012128462C
:10393000FDF7E9FE01212846FDF7D8FD09B030BDAD
:1039400038B500218E48FDF7D1FD2020ADF80000EC
:1039500010208DF803000320884C8DF80200694682
:103960002046FCF700FE20212046FCF777FE38BDFC
:103970002DE9F041824D20260327DFF8008282B036
:1039800004467A2803D944F62060844215D90021E0
:103990002846FDF7ABFDADF8046010208DF8070058
:1039A0008DF8067001A94046FCF7DDFD2021404658
:1039B000FCF754FE02B0BDE8F08101216E48FCF72F
:1039C0006CFEADF8006018208DF803008DF80270D1
:1039D00069464046FCF7C7FD6A48B0FBF4F4A1B263
:1039E0002846FDF7D5FFC4F34F012846FDF7D4FF65
:1039F00001212846FDF77AFD02B0BDE8F0812DE9EE
:103A0000F04F0024DFF8749183B0064620274FF072
:103A1000100B4FF0030800BF06EB840ABAF802004F
:103A2000002804BF03B0BDE8F08F36F824507A2D8B
:103A300003D944F62060854212D900215048FDF791
:103A400055FDADF804708DF807B08DF8068001A91A
:103A50004846FCF788FD20214846FCF7FFFD1EE0A4
:103A600001214548FCF719FEADF8007018208DF8CB
:103A700003008DF8028069464846FCF774FD414812
:103A8000B0FBF5F5A9B23E48FDF782FFC5F34F0143
:103A90003B48FDF781FF01213948FDF727FDBAF8C2
:103AA0000200FFF7E5FE601CC4B200213448FDF7B8
:103AB0001DFDADF800708DF803B08DF802806946E9
:103AC0004846FCF750FD20214846FCF7C7FD0A2078
:103AD000FFF7CEFEA0E730B589B043F63F050A24D4
:103AE00001210220FCF74EFF01210920FCF741FFD4
:103AF00001212148FCF7D1FD2020ADF81C00182041
:103B00008DF81F0003208DF81E0007A91B48FCF745
:103B10002AFDADF81450ADF810400024184DADF852
:103B20001640ADF8124004A92846FDF7BAF97020F6
:103B3000ADF800000120ADF802000220ADF8080049
:103B4000ADF8064069462846FDF737FA08212846B1
:103B5000FDF703FE01212846FDF7D5FD012128468A
:103B6000FDF7C4FC09B030BD20B1012818BF704773
:103B7000054844E7054842E700081A00000C0140E8
:103B80000004004000127A007A5700086A570008C3
:103B9000704700001CB50C46064B7B4469460090FC
:103BA000204600F0DAFA04460020694600F0E8FA00
:103BB00020461CBDE30500000FB4044910B503AA5C
:103BC000029800F0F9FA10BC5DF814FB2800002000
:103BD0000FB41CB5084B06AA7B44694600900598B3
:103BE00000F0BBFA04460020694600F0C9FA2046FE
:103BF0001CBC5DF814FB0000A505000070B5044670
:103C000085690068C10601D5302600E02026C0077E
:103C100007D070BDD4E9012130469047206A401C8E
:103C200020626D1EF6D570BD70B5044685690078BA
:103C3000C00707D170BDD4E9012120209047206A38
:103C4000401C20626D1EF6D570BD70B50C46054651
:103C5000012A05D02878800600D5EA69002302E011
:103C6000012305E05B1C934202D2E05C0028F9D1FD
:103C7000A869E618C01AA861286A1844286228466C
:103C8000FFF7BCFF04E0D5E9012114F8010B9047D0
:103C9000B442F8D32846FFF7C7FF70BDF0B40D4615
:103CA0000188090502D5214C7C4402E01F4C7C446C
:103CB0000E34002100F1240608E002F00F0712097B
:103CC000E75D42EA03721B097754491C52EA030775
:103CD000F3D102780023120704D5702D06D009B164
:103CE000022311342246F0BC00F088B901231034BD
:103CF000F8E770B504460D462146106800F075F9E6
:103D0000024629462046BDE870400023C6E7D21D82
:103D100022F00703D3E90023C0E70368126843F0E9
:103D2000200303600823C3610023B7E7DE1A000005
:103D30002DE9F05F894604464FF0000ADFF874B1C0
:103D4000FB44C0F820A02046E1688847002874D0D2
:103D5000252806D0D4E901219047206A401C206222
:103D6000F1E700265F462046E1688847202805469F
:103D700007DB312D05D2781910F8200C08B1064365
:103D8000F1E7B00701D526F00406C4F81CA000270F
:103D9000C4F818A02A2D09D0284601F01CFC38B31D
:103DA00004EB8708303DC8F8185019E059F8041B97
:103DB000204604EB87029161E1688847012F0546A0
:103DC00018D1E069002820DA26F020061DE0D8F896
:103DD000180000EB800005EB40003038C8F81800F0
:103DE0002046E1688847054601F0F5FB0028EED142
:103DF000012F0AD02E2D08D12046E16888477F1C6C
:103E00000546022F46F02006C4DBA069002803DA2D
:103E1000404246F00106A061F00701D026F01006EE
:103E20006C2D0BD0682D09D04C2D39D06A2D35D092
:103E3000742D35D07A2D33D016E038E0E1682F4666
:103E400020468847B842054609D16C2F26D04FF44A
:103E50008060E168064320468847054604E06C2FF1
:103E60001AD04FF4807006430DB3A5F14100192814
:103E700002D8203546F400664A4629462046266088
:103E80004E46FCF76DF980B101280BD0F61D26F0E7
:103E9000070000F1080956E74020E4E78020D8E752
:103EA0000020D6E706F104094DE7284652E7206ACC
:103EB000BDE8F09F6E1A000010B5431C02E010F838
:103EC000011B71B18107FAD14FF0013202C88C1A7F
:103ED0008C4314EAC211F9D0C01A0A0603D0C01EDE
:103EE00010BDC01A10BD0A0401D0801E10BD090209
:103EF000FCD0401E10BD421E12F8013F002BFBD12A
:103F000011F8013B002B02F8013BF9D1704710B5C5
:103F1000203AC0F00B80B1E81850203AA0E81850C1
:103F2000B1E81850A0E81850BFF4F5AF5FEA027C82
:103F300024BFB1E81850A0E8185044BF18C918C0F1
:103F4000BDE810405FEA827C24BF51F8043B40F892
:103F5000043B08BF7047D20728BF31F8023B48BF77
:103F600011F8012B28BF20F8023B48BF00F8012BB5
:103F7000704702F0FF0343EA032242EA024200F0E4
:103F800003BA4FF0000200B5134694469646203916
:103F900022BFA0E80C50A0E80C50B1F12001BFF402
:103FA000F7AF090728BFA0E80C5048BF0CC05DF868
:103FB00004EB890028BF40F8042B08BF704748BFB6
:103FC00020F8022B11F0804F18BF00F8012B70472A
:103FD000704770477047704709684A0501D540B27D
:103FE0007047C905FCD500B2704709684A0501D57C
:103FF000C0B27047C905FCD580B270472DE9F047C3
:104000000D4699469246044600F124080168880648
:1040100004D5E06921F01001216000E00120A842F0
:1040200001DD471B00E00027A1697A1902EB0900B6
:10403000081AA0612078C00602D42046FFF7DEFDF2
:10404000002608E0D4E901211AF806009047206A0A
:10405000401C761C20624E45F4DB2078C0060AD551
:104060002046FFF7CBFD06E0D4E901213020904740
:10407000206A401C2062381EA7F10107F4DC07E02B
:10408000D4E9012118F805009047206A401C2062FD
:10409000281EA5F10105F3DC2046FFF7C5FD2078B9
:1040A000000602D50220BDE8F0870120FBE70000F2
:1040B0002DE9F0410646002410687529314616A501
:1040C00010D0FFF789FF002802DA404213A507E06D
:1040D00031688A0701D512A502E0490704D511A568
:1040E000012401E0FFF781FF00210A2206F12407E5
:1040F00009E0B0FBF2FCB0FBF2F302FB1C00303035
:1041000078541846491C0028F3D123462A463046E5
:10411000BDE8F041FFF772BF000000002D00000075
:104120002B0000002000000011680268006A53059F
:1041300001D508700AE0D30501D5088006E0130612
:1041400003D5C217C1E9000200E0086001207047F2
:1041500001694A1C02610878704700B58FB0CDE94B
:1041600001310021059105497944CDE9031011463B
:104170006846FFF7DDFD0FB000BD0000E5FFFFFF63
:104180000A6802F8010B0A60704710B5436913B161
:10419000AFF3008001E0FFF758FD012010BD127859
:1041A00000F124010A7000224A700122EDE7116833
:1041B0004FF0FF32E9E70000074B70B50D467B4436
:1041C000FFF7CBFF0446284600F0E4FC10B14FF0A7
:1041D000FF3070BD204670BD09E3FFFF2DE9FF5F92
:1041E00015468A460446DFF8AC80F8440027D8E933
:1041F00000103E46CDE9001010E03AF816106A466D
:1042000002A800F0CBFC411C07D02178890603D519
:10421000E269391891420DD80744761C207880064F
:1042200002D5E069B84205DDAE42E6DB3AF8160099
:104230000028E2D1A069C01BA0612046FFF7DEFC88
:10424000D8E90010CDE90010002017E03AF8181066
:104250006A4602A800F0A2FCB0F1FF3F81460BD0F5
:1042600000250DF1080B05E0D4E901211BF805003C
:1042700090476D1C4D45F7D308F10100B0428046D0
:10428000E4DB206A384420622046FFF7CDFCBDE81D
:10429000FF9F0000D61500002DE9F0418046D21D99
:1042A00022F007020025D2E90002F52915A614D054
:1042B000011E72F1000106DA0023D0EB030063EB6C
:1042C000020211A608E0D8F800108B0701D50FA64E
:1042D00002E0490701D50EA601251146002408F188
:1042E000240704E000F070F830323A55641C50EABC
:1042F0000102F7D12B46324621464046BDE8F04147
:10430000FFF77CBE000000002D0000002B00000025
:104310002000000030B4002100F1240408E002F085
:104320000705D208303542EA4372DB086554491C60
:1043300052EA0305F3D10468002310A2250708D52B
:1043400004F020040C4304D0C46901230CA2641EB1
:10435000C46130BCFFF752BE10B504462146106858
:10436000FFF743FE02462046BDE810400023D1E798
:10437000D21D22F00701D1E90023CBE700000000A5
:10438000300000004FF000020429C0F0128010F04D
:10439000030C3FF4F8ADCCF1040CBCF1020F18BFD4
:1043A00000F8012BA8BF20F8022BA1EB0C01FFF7AE
:1043B000EABD5FEAC17C24BF00F8012B00F8012BA5
:1043C00048BF00F8012B704730B5B0F10A024FEA40
:1043D000900E71F100034EEA817EB0EB0E0061EBAE
:1043E00091014FEA101E4EEA017E10EB0E0041EBE8
:1043F00011114FEA102E4EEA016E10EB0E0041EB48
:1044000011214FEA104E4EEA014E10EB0E0041EB27
:104410001141401841F100014FEAD00040EA4170DB
:104420004FEAD10110EB80054FEA810444EA907411
:1044300044EB01046D1944EB0404521BA3414FF0FB
:10444000000348BF0A3200D530BD401C41F10001D5
:1044500030BD70472DE9FF4F0C461E464FF0FF3729
:104460008BB0D2E90001DDF860800A908A46C1F382
:104470000A5505B93D46002108464FF00000BAF143
:10448000000F00F4400005DA00EB80004FF440011B
:1044900001EA50004FEA9059B9F1010F00DDB94629
:1044A0000A9850EA4A000ED044F61050A5F2FF35A3
:1044B00045432F14B8F1000F1ED07542291E1EDD92
:1044C000C9F100021CE0B8F1010F4FF0000001D06B
:1044D000302103E0F24305E02154401CB042FBDBF5
:1044E00030460022002121540B99C1F80880C1E90F
:1044F00000200FB0BDE8F08FBD1B6D1CDEE74A4603
:1045000000DA694206A800F0DBFB06AB93E807007F
:1045100003AB83E8070050460A9900F08DFC8DE854
:104520000700A0F500501F3800900398002D09DD0A
:1045300042F21F014A46084403A90390684600F06E
:10454000ECFE08E0A0F500504A461F3803A903908E
:10455000684600F0F6FE8DE807000004000C03D06A
:104560004FF0FF30410800E01046B8F1000F03D0D3
:104570000022009215461EE0751E05D4FFF724FFA9
:10458000303262556D1EF9D5B3460122084302D080
:1045900000227F1C04E02078302801D100227F1EF9
:1045A000002A099786D01DE0112D07DAFFF70CFFCE
:1045B000303262556D1C50EA0102F5D1084302D039
:1045C0000098C8B10EE00021681E05E0235C625C23
:1045D00063542254401E491C8142F7DBAB46A81BA2
:1045E000401E0990002004F80B000B98099AC0F8AF
:1045F0000880C0E9002B7CE711264FF0000859E73E
:104600002DE9F04F88460446D21D22F0070191B0F3
:10461000D1E90001CDE90A0100F0C9FF02460B987B
:10462000C00F01D02D2007E02068810701D52B2085
:1046300002E0202101EAC000032A099001D0072AE4
:1046400005DB03464146204600F0FAFA0BE12078EC
:10465000800601D5E06900E00620B8F1650F8146CB
:1046600006D0B8F1660F18D0B8F1670F70D131E0FD
:104670000020B9F1110F009001DB112301E009F1D5
:1046800001030AAA01A90CA8FFF7E4FEDDE90C70FA
:10469000002609F10105834647E001204B460090C2
:1046A0004FF000470AAA01A90CA8FFF7D3FEDDE9E5
:1046B0000DB00C995D46002610B909F101000D18E6
:1046C000B9EB050003D4C0F1FF3609F10105A5EBF4
:1046D00009002BE0B9F1010F01DA4FF001090020C8
:1046E000B9F1110F0090484601DD112300E00346A7
:1046F0000AAA01A90CA8FFF7ADFEDDE90C704D4632
:1047000000268346207800070AD4AB4500DA5D46D0
:1047100001A8012D04DD411911F8011C302907D031
:104720004F4502DA17F1040F04DA012082460FE048
:104730006D1EEEE7002F02DCED1B3E4403E0781C0B
:10474000A84200DD7D1CB81B00F1010A4FF00047B4
:104750002078000703D4AA4501DB4FF0FF3A00217F
:10476000B7F1004F0DF143088DF8431024D002201B
:104770002B23002F01DA7F422D230A21021EA0F1F4
:10478000010000DC5FB197FBF1FC97FBF1F201FB4C
:104790001C7C17460CF1300C08F801CDEEE7A8F1AF
:1047A000010003702188090501D5452100E065213C
:1047B000A0F1010800F8011C09980FA9A1EB080756
:1047C000FF1D00B10120411901EBEA70A1693844D5
:1047D000081A401EA0612078C00602D42046FFF7C8
:1047E0000DFA099828B1D4E901219047206A401CAC
:1047F00020622078C00622D52046FFF7FFF91EE090
:10480000002E04DBB34502DD01A8805D00E030200E
:10481000D4E901219047206A401C2062761CAAF14D
:1048200001005FEA000A0AD100F006FAC0680168D8
:10483000405CD4E901219047206A401C2062281E78
:10484000A5F10105DCDC07E0D4E9012118F8010B32
:104850009047206A401C2062381EA7F10107F3DC54
:104860002046FFF7E1F9032011B043E62DE9F04FB0
:1048700004460D46D21D22F0070089B0D0E900970A
:104880004846394600F093FE0246F80F01D02D232A
:1048900007E02068810701D52B2302E0202101EAEF
:1048A000C0038DF820300BB1012000E00020032A66
:1048B000824601D0072A04DB2946204600F0C0F9D1
:1048C0003FE12078800601D40D2500E0E569C7F3BB
:1048D0000A560D2D49DA00214FEA175B08464FF0C2
:1048E0000000002F00F4400007DA00EB80004FF4D6
:1048F000400100EBD07001EA60008115012901DD63
:104900004FF0FF3100224FEA850CBCF1180F06D39F
:104910001346ACF118004FF08052C24003E04FF450
:10492000801323FA0CF30CF10C0CBCF1200F04D310
:10493000ACF1200C09FA0CF001E007FA0CF00029A8
:104940004FF0004801DD18B90FE00ED140450CD3FF
:1049500019EB02095F4121B9404502D19F4329EA81
:104960000209BBEB175F00D0761C2088000502D53A
:104970007B48784402E07A487844193808AA302302
:1049800002F80A30037C0AF10101002E0AF1020A42
:1049900053546A4602DC4FF0300101E04FF0310120
:1049A0004FF001088DF8001002D0A6F2FF3603E0A8
:1049B00059EA470100D06B4E002D02DC217809072F
:1049C00004D54FF002082E218DF80110C4460021B5
:1049D0000BE0C7F303433F01C35C491C6D1E02F8A3
:1049E0000830052908F1010801DA002DF1DC002169
:1049F0000CE000EB1973491C1B786D1E082902F8A6
:104A000008304FEA091908F1010801DA002DF0DC3D
:104A100021688B0602D516E0A8F10108E04505DD06
:104A200002EB080313F8013C302BF5D0B8F1000F6E
:104A300009DD02EB080313F8013C2E2B03D1090713
:104A400001D4A8F10108002D05DD3E2102F808106F
:104A50006D1E08F10108407C002E02F8080008F1E4
:104A6000010804DA2D20764202F8080002E02B202B
:104A700002F808000A214FF47A70864208F1010812
:104A80000BDB96FBF0F3303302F8083096FBF0F3C3
:104A900008F1010800FB136601E0642E0CDB6420C2
:104AA00096FBF0F3303302F8083096FBF0F308F190
:104AB000010800FB136601E00A2E06DB96FBF1F00D
:104AC000303002F8080008F1010896FBF1F001FB14
:104AD0001060303002F80800A16908F1010808EB05
:104AE000050202EB0A00081AA0612078C00602D471
:104AF0002046FFF783F8216A08AE01EB0A00206226
:104B000004E0D4E9012116F8010B9047BAF1010A3B
:104B1000F7D22078C00602D52046FFF76FF86E4620
:104B200009E016F8010B3E280FD0D4E90121904787
:104B3000206A401C2062B8F10108F2D22046FFF73B
:104B400073F809B00320BDE8F08F206A2844206282
:104B500003E0D4E90121302090476D1EEBD3F8E744
:104B6000690E000002FCFFFF10B5436913B1AFF3FB
:104B7000008001E0FFF732FB012010BD128800F138
:104B8000240182840022C2840122EDE711684FF0E3
:104B9000FF32E9E7007B00F08000704770B51646F1
:104BA0000C46054600F040F8036893F8010101281F
:104BB00006D0FF2C0FD8185D68B101202C7070BD95
:104BC000D3F807013246214603F20713034428466F
:104BD000BDE8704018474FF0FF3070BD754600F0DB
:104BE000E7F8AE4605006946534620F007008546C3
:104BF00018B020B5FBF72CFBBDE820404FF00006B5
:104C00004FF000074FF000084FF0000B21F00701B4
:104C1000AC46ACE8C009ACE8C009ACE8C009ACE8F7
:104C2000C0098D467047000010B500F005F8001D62
:104C300010BD00BFDD090000004870475000002093
:104C40002DE9F0411F46044603260168072A01F4B6
:104C5000006004DB08B116A505E016A503E008B165
:104C600015A500E015A521F010002060A069C01E68
:104C7000A0610FB1401EA0612046FEF7BFFF4FB1FB
:104C8000D4E9012138469047206A401C2062C01CAC
:104C9000206206E0206AFAE7D4E9012115F8010B49
:104CA0009047761EF8D22046FEF7BEFFBDE8F081A1
:104CB0004E414E006E616E00494E4600696E6600C0
:104CC0002DE9F047814616468AB0334878440DC82E
:104CD0008DE80D0030487844801C03AC0DC884E892
:104CE0000D0041F69B300844372190FBF1F290FB18
:104CF000F1F5A5F1800501FB12041B3C02D56442CD
:104D0000012000E00020DFF890A080460027FA4450
:104D1000AAF1BE0A0DE0E00709D03246684607EB6B
:104D200047010AEB810100F00CFB8DE807006410DD
:104D30007F1C002CEFD1184F7F44AC3F18E0E807F0
:104D400014D007EB04100DF1180A90E80E008AE861
:104D50000E00C068F04201D198190890324606A9A9
:104D600003A800F0EEFA03AB83E807006D10641CA3
:104D7000002DE4D132466946B8F1000F03A802D0F5
:104D800000F0CBFA01E000F0DCFAC9E90001C9F853
:104D900008200AB0BDE8F087A00B000010B504465B
:104DA000AFF300802046BDE81040FBF73CBA00009E
:104DB00000487047300000204FF0013C50F8042BB1
:104DC00051F8043B9A4221D1A2EB0C03934313EA1E
:104DD000CC1317D150F8042B51F8043B9A4215D14B
:104DE000A2EB0C03934313EACC130BD150F8042B22
:104DF00051F8043B9A4209D1A2EB0C03934313EA06
:104E0000CC13DBD04FF00000704700BFD01A01BABE
:104E1000B1FA81F101F0180122FA01F0CB40C1F1A1
:104E20002001DBB2C0B2C01A2CFA01F3D11A9143AF
:104E300011EAC311E6D170475FEA400C08BF91F058
:104E4000000F4FEA8C234FEAC12243EA51514FEA47
:104E50001C5018BF00F5F0404FEA300018BF41F079
:104E600000415FEA6C5C00F02980BCF1FF3F08BFA5
:104E700040F080407047130C06BF12044FF0100C36
:104E80004FF0000C130E04BF12020CF1080C130FAC
:104E900004BF12010CF1040C930F04BF92000CF13B
:104EA000020CD30F04BF52000CF1010C11464FF05D
:104EB0000002A0F11F00A0EB0C00704711F0004FA2
:104EC00008BF704731F000413FF4D5AF0B0C06BF6F
:104ED00009044FF0100C4FF0000C0B0E04BF090238
:104EE0000CF1080C0B0F04BF09010CF1040C8B0F23
:104EF00004BF89000CF1020CCB0F04BF49000CF178
:104F0000010CCCF12003A0EB0C0022FA03F302FA0F
:104F10000CF241EA030100F10100704720F07F4CE0
:104F200080EA030023F07F47ACEB070303F57C53D3
:104F300000F0004003F1FF032DE980494FEA154BD3
:104F400009B44FEA144325EA0B4E24EA03480FF252
:104F5000042606EB132749083E785FEA320203FB7A
:104F60000667C7F5000707FB06F64FEA54374FEA16
:104F7000D64606F1020607FB066CCCF1005C4FEA50
:104F80001C472CEA074C07FB06F40CFB06F504EB68
:104F900015464FEA961634BF00204FF000404FEA06
:104FA000D13706FB07FC4FEA1C4C0CFB0BF7D21B5E
:104FB00003FB0CF761EB07010CFB0EF7B0EB0740AE
:104FC00072EB17420CFB08F734BFA2EB0742B2EBBF
:104FD000074261EB17414FEA0C444FEA910706FB89
:104FE00007FC4FEA1C4C0CFB0BF7B0EBC74072EB15
:104FF000573203FB0CF734BFA2EBC742B2EBC742F8
:1050000061EB57310CFB0EF7B0EBC70072EB577238
:105010000CFB08F734BFA2EBC702B2EBC70261EB8F
:105020005771039F4FEA816141EA921104EBCC046E
:105030004FEAD1374FEA826206FB07FC42EA901240
:105040004FEA80604FEA1C4C0CFB0BF7D21B03FBB2
:105050000CF761EB07010CFB0EF7B0EB074072EBAE
:1050600017420CFB08F734BFA2EB0742B2EB074232
:1050700061EB17414FEA8C554FEA910704EB9C24F2
:1050800006FB07FC4FEA1C4C0CFB0BF7B0EBC740D0
:1050900072EB573203FB0CF734BFA2EBC742B2EB03
:1050A000C74261EB57310CFB0EF7B0EBC70072EB58
:1050B00057720CFB08F734BFA2EBC702B2EBC70272
:1050C00061EB577115EB4C254FEA816141EA921172
:1050D0004FEA82624FEAD13742EA901206FB07FCA0
:1050E00044F100044FEA80604FEA1C4C0CFB0BF7C4
:1050F000D21B03FB0CF761EB07010CFB0EF7B0EBC7
:10510000074072EB17420CFB08F734BFA2EB0742D3
:10511000B2EB074261EB174115EB1C154FEA8131E9
:1051200041EA92414FEA823242EA90424FEA8030AD
:105130004FEA0C7644F1000448EA03434EEA0B4878
:105140004FF0000EB2EB080C71EB030724BF624670
:1051500039464EEB0E0E4FF0000B001852414941FC
:105160004BEB0B0BB2EB080C71EB03077BF1000B65
:1051700024BF624639464EEB0E0E4FF0000B00186E
:10518000524149414BEB0B0BB2EB080C71EB03079F
:105190007BF1000B24BF624639464EEB0E0E51EAFE
:1051A000020718BF46F0010616EB0E7655F1000215
:1051B00054F1000103D5BDE88901BDE80088BDE8D0
:1051C0008901BDE80048B619524141EB0101A3F144
:1051D0000103704780807F7E7D7C7B7A797877764B
:1051E00076757473727171706F6E6E6D6C6C6B6AC4
:1051F0006A69686867666665646463636261616062
:10520000605F5F5E5E5D5D5C5C5B5B5A5A595958DE
:105210005857575656555555545453535252525148
:10522000515050504F4F4F4E4E4D4D4D4C4C4C4B9E
:105230004B4B4A4A4A4949494848484747474746E5
:105240004646454545444444444343434342424221
:1052500042414141002B26D4770021D01CB54FEAB2
:10526000370703B44FF010004FF010014FF000006B
:105270000FBCBDE810400BF1010BBBF1010F08BFE3
:105280005FEA170722BF12F1010211F101014FF08D
:10529000004143F1000300F0004043EA0000704782
:1052A000F9D35708DAE746EA064613F1400F4FEA0A
:1052B00016461FDD13F1200FDFBF16430A460021FB
:1052C00020335B42C8D0C3F1200746EA064602FA03
:1052D00007F74FEA164646EA0706C3F1200722FA07
:1052E00003F201FA07F721FA03F14FF0000342EA53
:1052F0000702B1E746EA020646EA06464FEA1646C4
:1053000046EA0106BCBF46EA0646360C4FF00003EB
:105310004FF000024FF000019EE72DE9C048934690
:1053200030B491E8380007C831EA400C48BF34EA8D
:10533000430C03D5FFF7F2FDFFF78CFFF0BCBDE88F
:1053400000882DE9C048934630B491E8380007C87A
:1053500010F0804F08BF13F0804F03D100F005F824
:10536000FFF778FFF0BCBDE8008820F07F4780EAB7
:10537000030023F07F4C07EB0C03A3F57C5300F0F4
:105380000040A3F1FE0392F0000F00F0B38095F00F
:10539000000F00F077802DE901494FEA11404FEAF4
:1053A000144621EA004800FB06FC24EA064708FBF5
:1053B00006F607FB08F800FB07F718EB06484CEB6E
:1053C000164C4FEA124B18EB07484FEA15464CEBC8
:1053D000174022EA0B4E0BFB06FC25EA06470EFBA4
:1053E00006F607FB0EFE0BFB07F71EEB064E4CEB1B
:1053F000164C4FF000061EEB074E4CEB174B18EB0C
:105400000B0840F1000018EB0E0B58EB000840F1C0
:1054100000008F1A4FF000013CBFC943661B14BF48
:10542000B5EB040C00213CBFC943F61B4FEA1744FF
:105430004EEA8E0E27EA04454FEA1C4704FB07623A
:105440002CEA074C05FB07F70CFB05F604FB0CFCEC
:1054500016EB074642EB174216EB0C4642EB1C429A
:105460001BEB060658EB0202414146EA9E0601D5B7
:10547000BDE80189B619524141EB0101A3F10103D5
:10548000BDE801894FEA14454FEA114724EA054671
:1054900021EA074C05FB07F406FB07F70CFB06F1B6
:1054A00005FB0CFC11EB074144EB17444FEA124794
:1054B00011EB0C4144EB1C4422EA074C05FB07F2BC
:1054C00006FB07F70CFB06F605FB0CFC16EB074684
:1054D00042EB174216EB0C4642EB1C456A1854F19E
:1054E000000148BF7047B619524141EB0101A3F1D9
:1054F0000103704795F0000F37D04FEA11424FEA91
:10550000144721EA024624EA074C02FB07F106FB96
:1055100007F70CFB06F402FB0CFC14EB074441EB11
:1055200017414FEA154714EB0C4441EB1C4125EAA7
:10553000074C02FB07F506FB07F70CFB06F602FB20
:105540000CFC16EB074645EB174516EB0C4645EBF6
:105550001C42121951F1000148BF7047B61952415F
:1055600041EB0101A3F1010370474FEA14454FEAF3
:10557000114724EA054621EA074C05FB07F106FB23
:1055800007F70CFB06F24FF0000605FB0CFC12EBD4
:10559000074241EB174112EB0C4251EB1C4148BF53
:1055A0007047921841EB0101A3F1010370474900D4
:1055B00050EAC12018BF04204A0D18BF40F0010076
:1055C00040F2FF72B2EB515F08BF40F002000128C9
:1055D00008BF0520704730380A2801D201207047E3
:1055E0000020704710B500290AD00878002807D09D
:1055F00005487844FFF7E0FB002801D0002010BDEB
:105600000248784410BD0000B6020000AE0200005F
:1056100010B500290AD00878002807D0054878443A
:10562000FFF7CAFB002801D0002010BD02487844D3
:1056300010BD0000A60200009E020000FEF7E0BFC1
:10564000FFF714B930313233343536373839303129
:105650003233343536373839303132333435363702
:1056600038393031323334353637383930313233F6
:1056700034353637383930313233343536373839D6
:10568000303132333435363738390000000000000D
:10569000000000000000000000000000000000000A
:1056A00000000000000000000000000000000000FA
:1056B00000000000000000000000000000000000EA
:1056C00000000000000000000000000000000000DA
:1056D00000000000000000000000000000000000CA
:1056E00000000000000000000000000000000000BA
:1056F00000000000000000000000000000000000AA
:105700000000000000000000000000000000000099
:105710000000000000000000000000000000000089
:105720000000000000000000000000000000000079
:105730000000000000000000000000000000000069
:1057400000000000A0005FB10000000000000000A9
:10575000000000000000000000DC4420B808040045
:10576000465925584910230200007003A600700313
:10577000A6007003A600000000001003A6000B02A4
:10578000A6001003A600000000003031323334358B
:10579000363738394142434445464030580030316D
:1057A0003233343536373839616263646566403088
:1057B0007800040000080000000000000002000162
:1057C0000000100000000000000000003031323303
:1057D0003435363738396162636465667870003015
:1057E00031323334353637383941424344454658EF
:1057F0005000000002400000000000A00000000077
:1058000005400000000000C8000000000C4000003F
:105810000000409C00000000194000000020BCBEB9
:105820000000000034400000BFC91B8E00000004CF
:10583000B5400000504BCFD06607E2CF010000001A
:105840006C4100003E8251AADFEEA7340100000047
:10585000D9420000DCB5A0E23A301F97FFFFFFFFFE
:10586000B4450000FD25A0C8E9A3C14FFFFFFFFF1D
:10587000FF3F00000000008000000000FF3F00002C
:105880000000008000000000D45900080000002043
:105890003000000028010008045A000830000020F1
:1058A00060060000440100081C00000043000000E6
:1058B000F8FFFFFF0C0000000E0000000F000000CA
:1058C0002E0000001001000043000000F8FFFFFF61
:1058D0000040404040404040404041414141414003
:1058E00040404040404040404040404040404040B8
:1058F0004005020202020202020202020202020247
:10590000022020202020202020202002020202024B
:1059100002029090909090901010101010101010A3
:1059200010101010101010101010101002020202AF
:1059300002028888888888880808080808080808F3
:1059400008080808080808080808080802020202EF
:105950004000000000000000000000000000000007
:105960000000000000000000000000000000000037
:105970000000000000000000000000000000000027
:105980000000000000000000000000000000000017
:105990000000000000000000000000000000000007
:1059A00000000000000000000000000000000000F7
:1059B00000000000000000000000000000000000E7
:1059C00000000000000000000000000000000000D7
:1059D0000000000000A24A040000000000000000D7
:1059E000010203040607080902040608000000007B
:1059F0000102030401020304060708090000000075
:045A000000000000A2
:04000005080000ED02
:00000001FF
